{
  "contractName": "GenesisFactory",
  "abi": [
    {
      "inputs": [
        {
          "internalType": "address",
          "name": "wethToken",
          "type": "address"
        },
        {
          "internalType": "address",
          "name": "treasury",
          "type": "address"
        }
      ],
      "stateMutability": "nonpayable",
      "type": "constructor"
    },
    {
      "anonymous": false,
      "inputs": [
        {
          "indexed": true,
          "internalType": "address",
          "name": "previousOwner",
          "type": "address"
        },
        {
          "indexed": true,
          "internalType": "address",
          "name": "newOwner",
          "type": "address"
        }
      ],
      "name": "OwnershipTransferred",
      "type": "event"
    },
    {
      "inputs": [],
      "name": "acl",
      "outputs": [
        {
          "internalType": "contract ACL",
          "name": "",
          "type": "address"
        }
      ],
      "stateMutability": "view",
      "type": "function"
    },
    {
      "inputs": [
        {
          "components": [
            {
              "internalType": "address",
              "name": "token",
              "type": "address"
            },
            {
              "internalType": "address",
              "name": "priceFeed",
              "type": "address"
            }
          ],
          "internalType": "struct PriceFeedConfig[]",
          "name": "priceFeeds",
          "type": "tuple[]"
        }
      ],
      "name": "addPriceFeeds",
      "outputs": [],
      "stateMutability": "nonpayable",
      "type": "function"
    },
    {
      "inputs": [],
      "name": "addressProvider",
      "outputs": [
        {
          "internalType": "contract AddressProvider",
          "name": "",
          "type": "address"
        }
      ],
      "stateMutability": "view",
      "type": "function"
    },
    {
      "inputs": [],
      "name": "claimACLOwnership",
      "outputs": [],
      "stateMutability": "nonpayable",
      "type": "function"
    },
    {
      "inputs": [],
      "name": "claimAddressProviderOwnership",
      "outputs": [],
      "stateMutability": "nonpayable",
      "type": "function"
    },
    {
      "inputs": [],
      "name": "owner",
      "outputs": [
        {
          "internalType": "address",
          "name": "",
          "type": "address"
        }
      ],
      "stateMutability": "view",
      "type": "function"
    },
    {
      "inputs": [],
      "name": "priceOracle",
      "outputs": [
        {
          "internalType": "contract PriceOracle",
          "name": "",
          "type": "address"
        }
      ],
      "stateMutability": "view",
      "type": "function"
    },
    {
      "inputs": [],
      "name": "renounceOwnership",
      "outputs": [],
      "stateMutability": "nonpayable",
      "type": "function"
    },
    {
      "inputs": [
        {
          "internalType": "address",
          "name": "newOwner",
          "type": "address"
        }
      ],
      "name": "transferOwnership",
      "outputs": [],
      "stateMutability": "nonpayable",
      "type": "function"
    }
  ],
  "bytecode": "60806040523480156200001157600080fd5b506040516200e3293803806200e329833981016040819052620000349162000811565b6200003f3362000734565b6040516200004d9062000784565b604051809103906000f0801580156200006a573d6000803e3d6000fd5b50600180546001600160a01b0319166001600160a01b039283169081179091556040516310dc138160e31b81529184166004830152906386e09c0890602401600060405180830381600087803b158015620000c457600080fd5b505af1158015620000d9573d6000803e3d6000fd5b50506001546040516301ed651160e41b81526001600160a01b0385811660048301529091169250631ed651109150602401600060405180830381600087803b1580156200012557600080fd5b505af11580156200013a573d6000803e3d6000fd5b505050506040516200014c9062000792565b604051809103906000f08015801562000169573d6000803e3d6000fd5b50600280546001600160a01b0319166001600160a01b039283169081179091556001546040516376aad60560e01b81526004810192909252909116906376aad60590602401600060405180830381600087803b158015620001c957600080fd5b505af1158015620001de573d6000803e3d6000fd5b5050600154604051600093506001600160a01b0390911691506200020290620007a0565b6001600160a01b039091168152602001604051809103906000f0801580156200022f573d6000803e3d6000fd5b5060015460405163338f12b960e21b81526001600160a01b03808416600483015292935091169063ce3c4ae490602401600060405180830381600087803b1580156200027a57600080fd5b505af11580156200028f573d6000803e3d6000fd5b5050600154604051600093506001600160a01b039091169150620002b390620007ae565b6001600160a01b039091168152602001604051809103906000f080158015620002e0573d6000803e3d6000fd5b5060015460405163c5120b3960e01b81526001600160a01b03808416600483015292935091169063c5120b3990602401600060405180830381600087803b1580156200032b57600080fd5b505af115801562000340573d6000803e3d6000fd5b5050600154604051606093506001600160a01b03909116915082906200036690620007bc565b6200037392919062000849565b604051809103906000f08015801562000390573d6000803e3d6000fd5b50600380546001600160a01b0319166001600160a01b0392831690811790915560015460405163530e784f60e01b815260048101929092529091169063530e784f90602401600060405180830381600087803b158015620003f057600080fd5b505af115801562000405573d6000803e3d6000fd5b5050600154604051600093506001600160a01b0390911691506200042990620007ca565b6001600160a01b039091168152602001604051809103906000f08015801562000456573d6000803e3d6000fd5b506001546040516356ee0d3b60e11b81526001600160a01b03808416600483015292935091169063addc1a7690602401600060405180830381600087803b158015620004a157600080fd5b505af1158015620004b6573d6000803e3d6000fd5b5050600154604051600093506001600160a01b039091169150620004da90620007d8565b6001600160a01b039091168152602001604051809103906000f08015801562000507573d6000803e3d6000fd5b506001546040516321da583760e01b81526001600160a01b0380841660048301529293509116906321da583790602401600060405180830381600087803b1580156200055257600080fd5b505af115801562000567573d6000803e3d6000fd5b505050506000306040516200057c90620007e6565b6001600160a01b039091168152602001604051809103906000f080158015620005a9573d6000803e3d6000fd5b50600154604051631795d5b360e31b81526001600160a01b03808416600483015292935091169063bcaead9890602401600060405180830381600087803b158015620005f457600080fd5b505af115801562000609573d6000803e3d6000fd5b505060405163f2fde38b60e01b81523360048201526001600160a01b038416925063f2fde38b9150602401600060405180830381600087803b1580156200064f57600080fd5b505af115801562000664573d6000803e3d6000fd5b505060015460405163f2fde38b60e01b81523360048201526001600160a01b03909116925063f2fde38b9150602401600060405180830381600087803b158015620006ae57600080fd5b505af1158015620006c3573d6000803e3d6000fd5b505060025460405163f2fde38b60e01b81523360048201526001600160a01b03909116925063f2fde38b9150602401600060405180830381600087803b1580156200070d57600080fd5b505af115801562000722573d6000803e3d6000fd5b505050505050505050505050620008b2565b600080546001600160a01b038381166001600160a01b0319831681178455604051919092169283917f8be0079c531659141344cd1fd0a4f28419497f9722a3daafe3b4186f6b6457e09190a35050565b6109ea8062000f4083390190565b610728806200192a83390190565b610bd2806200205283390190565b61443b8062002c2483390190565b6116b2806200705f83390190565b612349806200871183390190565b6116c5806200aa5a83390190565b61220a806200c11f83390190565b80516001600160a01b03811681146200080c57600080fd5b919050565b600080604083850312156200082557600080fd5b6200083083620007f4565b91506200084060208401620007f4565b90509250929050565b6001600160a01b0383811682526040602080840182905284518483018190526000938683019290916060870190865b81811015620008a3578551805186168452840151851684840152948301949186019160010162000878565b50909998505050505050505050565b61067e80620008c26000396000f3fe608060405234801561001057600080fd5b50600436106100935760003560e01c80638da5cb5b116100665780638da5cb5b146100f7578063abd45ac614610108578063de28735914610110578063f2fde38b14610123578063f9d68c811461013657600080fd5b80632630c12f146100985780632954018c146100c7578063715018a6146100da5780638874ff1f146100e4575b600080fd5b6003546100ab906001600160a01b031681565b6040516001600160a01b03909116815260200160405180910390f35b6001546100ab906001600160a01b031681565b6100e261013e565b005b6100e26100f236600461050d565b610152565b6000546001600160a01b03166100ab565b6100e261028f565b6002546100ab906001600160a01b031681565b6100e26101313660046105e9565b610301565b6100e261037f565b6101466103d7565b6101506000610431565b565b61015a6103d7565b60005b815181101561022e5760035482516001600160a01b039091169063e8a97a3e9084908490811061018f5761018f61060b565b6020026020010151600001518484815181106101ad576101ad61060b565b6020026020010151602001516040518363ffffffff1660e01b81526004016101eb9291906001600160a01b0392831681529116602082015260400190565b600060405180830381600087803b15801561020557600080fd5b505af1158015610219573d6000803e3d6000fd5b505050508061022790610621565b905061015d565b5060025460405163f2fde38b60e01b81523360048201526001600160a01b039091169063f2fde38b90602401600060405180830381600087803b15801561027457600080fd5b505af1158015610288573d6000803e3d6000fd5b5050505050565b6102976103d7565b600260009054906101000a90046001600160a01b03166001600160a01b0316634e71e0c86040518163ffffffff1660e01b8152600401600060405180830381600087803b1580156102e757600080fd5b505af11580156102fb573d6000803e3d6000fd5b50505050565b6103096103d7565b6001600160a01b0381166103735760405162461bcd60e51b815260206004820152602660248201527f4f776e61626c653a206e6577206f776e657220697320746865207a65726f206160448201526564647265737360d01b60648201526084015b60405180910390fd5b61037c81610431565b50565b6103876103d7565b600160009054906101000a90046001600160a01b03166001600160a01b0316634e71e0c86040518163ffffffff1660e01b8152600401600060405180830381600087803b1580156102e757600080fd5b6000546001600160a01b031633146101505760405162461bcd60e51b815260206004820181905260248201527f4f776e61626c653a2063616c6c6572206973206e6f7420746865206f776e6572604482015260640161036a565b600080546001600160a01b038381166001600160a01b0319831681178455604051919092169283917f8be0079c531659141344cd1fd0a4f28419497f9722a3daafe3b4186f6b6457e09190a35050565b634e487b7160e01b600052604160045260246000fd5b6040805190810167ffffffffffffffff811182821017156104ba576104ba610481565b60405290565b604051601f8201601f1916810167ffffffffffffffff811182821017156104e9576104e9610481565b604052919050565b80356001600160a01b038116811461050857600080fd5b919050565b6000602080838503121561052057600080fd5b823567ffffffffffffffff8082111561053857600080fd5b818501915085601f83011261054c57600080fd5b81358181111561055e5761055e610481565b61056c848260051b016104c0565b818152848101925060069190911b83018401908782111561058c57600080fd5b928401925b818410156105de57604084890312156105aa5760008081fd5b6105b2610497565b6105bb856104f1565b81526105c88686016104f1565b8187015283526040939093019291840191610591565b979650505050505050565b6000602082840312156105fb57600080fd5b610604826104f1565b9392505050565b634e487b7160e01b600052603260045260246000fd5b60006001820161064157634e487b7160e01b600052601160045260246000fd5b506001019056fea2646970667358221220b4a1c9a880a352408284487897289c1c30ce6b261117cf6898fd0cc90d1aeda164736f6c63430008110033608060405234801561001057600080fd5b5061001a3361005f565b60405130906f20a2222922a9a9afa82927ab24a222a960811b907fb37614c7d254ea8d16eb81fa11dddaeb266aa8ba4917980859c7740aff30c69190600090a36100af565b600080546001600160a01b038381166001600160a01b0319831681178455604051919092169283917f8be0079c531659141344cd1fd0a4f28419497f9722a3daafe3b4186f6b6457e09190a35050565b61092c806100be6000396000f3fe608060405234801561001057600080fd5b50600436106101a95760003560e01c806377532ed9116100f9578063bcaead9811610097578063ce3c4ae411610071578063ce3c4ae414610320578063e30c397814610333578063f2fde38b14610346578063fca513a81461035957600080fd5b8063bcaead98146102f2578063c5120b3914610305578063c513c9bb1461031857600080fd5b80638da5cb5b116100d35780638da5cb5b146102be5780639068a868146102cf578063addc1a76146102d7578063affd9243146102ea57600080fd5b806377532ed9146102905780637b6757ff1461029857806386e09c08146102ab57600080fd5b80634c252f911161016657806354fd4d501161014057806354fd4d5014610236578063699f200f1461024c578063715018a61461027557806376aad6051461027d57600080fd5b80634c252f91146102135780634e71e0c81461021b578063530e784f1461022357600080fd5b8063060678c2146101ae57806308737695146101d35780631ed65110146101db57806321da5837146101f057806326c74fc31461020357806344b885631461020b575b600080fd5b6101b6610361565b6040516001600160a01b0390911681526020015b60405180910390f35b6101b6610383565b6101ee6101e936600461085f565b610394565b005b6101ee6101fe36600461085f565b6103bd565b6101b66103de565b6101b66103fd565b6101b661041c565b6101ee610434565b6101ee61023136600461085f565b6104c9565b61023e600281565b6040519081526020016101ca565b6101b661025a36600461088f565b6002602052600090815260409020546001600160a01b031681565b6101ee6104ea565b6101ee61028b36600461085f565b6104fe565b6101b6610516565b6101ee6102a636600461085f565b610530565b6101ee6102b936600461085f565b610556565b6000546001600160a01b03166101b6565b6101b6610575565b6101ee6102e536600461085f565b610592565b6101b66105b6565b6101ee61030036600461085f565b6105ce565b6101ee61031336600461085f565b6105ed565b6101b6610611565b6101ee61032e36600461085f565b610631565b6001546101b6906001600160a01b031681565b6101ee61035436600461085f565b610658565b6101b66106e9565b600061037e6e2220aa20afa1a7a6a82922a9a9a7a960891b6106ff565b905090565b600061037e621050d360ea1b6106ff565b61039c61075c565b6103ba701514915054d5549657d0d3d395149050d5607a1b826107b6565b50565b6103c561075c565b6103ba6b574554485f4741544557415960a01b826107b6565b600061037e701514915054d5549657d0d3d395149050d5607a1b6106ff565b600061037e704c45564552414745445f414354494f4e5360781b6106ff565b600061037e692ba2aa242faa27a5a2a760b11b6106ff565b6001546001600160a01b031633146104a25760405162461bcd60e51b815260206004820152602660248201527f436c61696d61626c653a2053656e646572206973206e6f742070656e64696e676044820152651037bbb732b960d11b60648201526084015b60405180910390fd5b6001546104b7906001600160a01b031661080f565b600180546001600160a01b0319169055565b6104d161075c565b6103ba6b50524943455f4f5241434c4560a01b826107b6565b6104f261075c565b6104fc600061080f565b565b61050661075c565b6103ba621050d360ea1b826107b6565b600061037e6b574554485f4741544557415960a01b6106ff565b61053861075c565b6103ba704c45564552414745445f414354494f4e5360781b826107b6565b61055e61075c565b6103ba692ba2aa242faa27a5a2a760b11b826107b6565b600061037e6e4143434f554e545f464143544f525960881b6106ff565b61059a61075c565b6103ba6e4143434f554e545f464143544f525960881b826107b6565b600061037e6923a2a0a92faa27a5a2a760b11b6106ff565b6105d661075c565b6103ba6923a2a0a92faa27a5a2a760b11b826107b6565b6105f561075c565b6103ba6e2220aa20afa1a7a6a82922a9a9a7a960891b826107b6565b600061037e7121a7a72a2920a1aa29afa922a3a4a9aa22a960711b6106ff565b61063961075c565b6103ba7121a7a72a2920a1aa29afa922a3a4a9aa22a960711b826107b6565b61066061075c565b6001600160a01b0381166106c75760405162461bcd60e51b815260206004820152602860248201527f436c61696d61626c653a206e6577206f776e657220697320746865207a65726f604482015267206164647265737360c01b6064820152608401610499565b600180546001600160a01b0319166001600160a01b0392909216919091179055565b600061037e6b50524943455f4f5241434c4560a01b5b6000818152600260209081526040808320548151808301909252600382526241503160e81b928201929092526001600160a01b0390911690816107555760405162461bcd60e51b815260040161049991906108a8565b5092915050565b6000546001600160a01b031633146104fc5760405162461bcd60e51b815260206004820181905260248201527f4f776e61626c653a2063616c6c6572206973206e6f7420746865206f776e65726044820152606401610499565b60008281526002602052604080822080546001600160a01b0319166001600160a01b0385169081179091559051909184917fb37614c7d254ea8d16eb81fa11dddaeb266aa8ba4917980859c7740aff30c6919190a35050565b600080546001600160a01b038381166001600160a01b0319831681178455604051919092169283917f8be0079c531659141344cd1fd0a4f28419497f9722a3daafe3b4186f6b6457e09190a35050565b60006020828403121561087157600080fd5b81356001600160a01b038116811461088857600080fd5b9392505050565b6000602082840312156108a157600080fd5b5035919050565b600060208083528351808285015260005b818110156108d5578581018301518582016040015282016108b9565b506000604082860101526040601f19601f830116850101925050509291505056fea26469706673582212200dac7f71485a8db5aee1d67bb3ff3d39172b102aba5b8428150c0d728e808ea864736f6c63430008110033608060405234801561001057600080fd5b5061001a3361001f565b61006f565b600080546001600160a01b038381166001600160a01b0319831681178455604051919092169283917f8be0079c531659141344cd1fd0a4f28419497f9722a3daafe3b4186f6b6457e09190a35050565b6106aa8061007e6000396000f3fe608060405234801561001057600080fd5b50600436106100f55760003560e01c80637328181911610097578063ba306df111610066578063ba306df114610229578063d4eb5db01461023c578063e30c397814610268578063f2fde38b1461027b57600080fd5b806373281819146101bb578063819ad68e146101de5780638da5cb5b146101f1578063adce758d1461021657600080fd5b80634e71e0c8116100d35780634e71e0c81461017357806354fd4d501461017b5780635f259aba14610191578063715018a6146101b357600080fd5b806335914829146100fa5780633a41ec64146101325780634910832f1461015e575b600080fd5b61011d610108366004610644565b60026020526000908152604090205460ff1681565b60405190151581526020015b60405180910390f35b61011d610140366004610644565b6001600160a01b031660009081526002602052604090205460ff1690565b61017161016c366004610644565b61028e565b005b6101716102e2565b610183600181565b604051908152602001610129565b61011d61019f366004610644565b6000546001600160a01b0391821691161490565b610171610377565b61011d6101c9366004610644565b60036020526000908152604090205460ff1681565b6101716101ec366004610644565b61038b565b6000546001600160a01b03165b6040516001600160a01b039091168152602001610129565b610171610224366004610644565b6103df565b610171610237366004610644565b610474565b61011d61024a366004610644565b6001600160a01b031660009081526003602052604090205460ff1690565b6001546101fe906001600160a01b031681565b610171610289366004610644565b610509565b61029661059a565b6001600160a01b038116600081815260026020526040808220805460ff19166001179055517fae26b1cfe9454ba87274a4e8330b6654684362d0f3d7bbd17f7449a1d38387c69190a250565b6001546001600160a01b031633146103505760405162461bcd60e51b815260206004820152602660248201527f436c61696d61626c653a2053656e646572206973206e6f742070656e64696e676044820152651037bbb732b960d11b60648201526084015b60405180910390fd5b600154610365906001600160a01b03166105f4565b600180546001600160a01b0319169055565b61037f61059a565b61038960006105f4565b565b61039361059a565b6001600160a01b038116600081815260036020526040808220805460ff19166001179055517fd400da6c0c0a894dacc0981730b88af0545d00272ee8fff1437bf560ff245fc49190a250565b6103e761059a565b6001600160a01b03811660009081526003602052604090205460ff1661042b576040516357f592b760e01b81526001600160a01b0382166004820152602401610347565b6001600160a01b038116600081815260036020526040808220805460ff19169055517f1998397e7203f7baca9d6f41b9e4da6e768daac5caad4234fb9bf5869d2715459190a250565b61047c61059a565b6001600160a01b03811660009081526002602052604090205460ff166104c05760405163e116318960e01b81526001600160a01b0382166004820152602401610347565b6001600160a01b038116600081815260026020526040808220805460ff19169055517f28b01395b7e25d20552a0c8dc8ecd3b1d4abc986f14dad7885fd45b6fd73c8d99190a250565b61051161059a565b6001600160a01b0381166105785760405162461bcd60e51b815260206004820152602860248201527f436c61696d61626c653a206e6577206f776e657220697320746865207a65726f604482015267206164647265737360c01b6064820152608401610347565b600180546001600160a01b0319166001600160a01b0392909216919091179055565b6000546001600160a01b031633146103895760405162461bcd60e51b815260206004820181905260248201527f4f776e61626c653a2063616c6c6572206973206e6f7420746865206f776e65726044820152606401610347565b600080546001600160a01b038381166001600160a01b0319831681178455604051919092169283917f8be0079c531659141344cd1fd0a4f28419497f9722a3daafe3b4186f6b6457e09190a35050565b60006020828403121561065657600080fd5b81356001600160a01b038116811461066d57600080fd5b939250505056fea2646970667358221220835bbaf0cbddf40235bbad8ed20125110b9a758c1c68221f654a0fb5a5226bf064736f6c6343000811003360a060405234801561001057600080fd5b50604051610bd2380380610bd283398101604081905261002f916100d7565b6000805460ff19169055806001600160a01b03811661006157604051635919af9760e11b815260040160405180910390fd5b806001600160a01b031663087376956040518163ffffffff1660e01b8152600401602060405180830381865afa15801561009f573d6000803e3d6000fd5b505050506040513d601f19601f820116820180604052508101906100c391906100d7565b6001600160a01b0316608052506101079050565b6000602082840312156100e957600080fd5b81516001600160a01b038116811461010057600080fd5b9392505050565b608051610a9461013e600039600081816101d50152818161027f01528181610390015281816104ad01526106810152610a946000f3fe608060405234801561001057600080fd5b50600436106100f55760003560e01c80638456cb5911610097578063b4ac686011610066578063b4ac68601461020a578063c29277cd14610212578063d914cd4b1461021a578063e26b2f631461022d57600080fd5b80638456cb59146101c057806394144856146101c8578063a50cf2c8146101d0578063ac4afa38146101f757600080fd5b80635b16ebb7116100d35780635b16ebb71461014a5780635c975abb1461017d578063673a2a1f146101885780636fbc6f6b1461019d57600080fd5b80631e16e4fc146100fa5780633f4ba83a1461012a57806354fd4d5014610134575b600080fd5b61010d610108366004610958565b610240565b6040516001600160a01b0390911681526020015b60405180910390f35b61013261026a565b005b61013c600181565b604051908152602001610121565b61016d610158366004610971565b60026020526000908152604090205460ff1681565b6040519015158152602001610121565b60005460ff1661016d565b610190610319565b60405161012191906109a1565b61016d6101ab366004610971565b60046020526000908152604090205460ff1681565b61013261037b565b610190610428565b61010d7f000000000000000000000000000000000000000000000000000000000000000081565b61010d610205366004610958565b610488565b60015461013c565b60035461013c565b610132610228366004610971565b610498565b61013261023b366004610971565b61066c565b6003818154811061025057600080fd5b6000918252602090912001546001600160a01b0316905081565b604051630d4eb5db60e41b81523360048201527f00000000000000000000000000000000000000000000000000000000000000006001600160a01b03169063d4eb5db090602401602060405180830381865afa1580156102ce573d6000803e3d6000fd5b505050506040513d601f19601f820116820180604052508101906102f291906109ee565b61030f5760405163081996f760e11b815260040160405180910390fd5b61031761083a565b565b6060600180548060200260200160405190810160405280929190818152602001828054801561037157602002820191906000526020600020905b81546001600160a01b03168152600190910190602001808311610353575b5050505050905090565b604051630e907b1960e21b81523360048201527f00000000000000000000000000000000000000000000000000000000000000006001600160a01b031690633a41ec6490602401602060405180830381865afa1580156103df573d6000803e3d6000fd5b505050506040513d601f19601f8201168201806040525081019061040391906109ee565b6104205760405163d794b1e760e01b815260040160405180910390fd5b61031761088c565b60606003805480602002602001604051908101604052809291908181526020018280548015610371576020028201919060005260206000209081546001600160a01b03168152600190910190602001808311610353575050505050905090565b6001818154811061025057600080fd5b604051632f92cd5d60e11b81523360048201527f00000000000000000000000000000000000000000000000000000000000000006001600160a01b031690635f259aba90602401602060405180830381865afa1580156104fc573d6000803e3d6000fd5b505050506040513d601f19601f8201168201806040525081019061052091906109ee565b61053d576040516361081c1560e01b815260040160405180910390fd5b60408051808201909152600281526105a360f41b60208201526001600160a01b0382166105865760405162461bcd60e51b815260040161057d9190610a10565b60405180910390fd5b506001600160a01b038116600090815260026020908152604091829020548251808401909352600383526243523160e81b9183019190915260ff16156105df5760405162461bcd60e51b815260040161057d9190610a10565b506001805480820182557fb10e2d527612073b26eecdfd717e6a320cf44b4afac2b0732d9fcbe2b7fa0cf60180546001600160a01b0319166001600160a01b038416908117909155600081815260026020526040808220805460ff1916909417909355915190917ff816b5143086c89d103a0683286be86c2b741e83ebfa75135aae606e2f5c6e5391a250565b604051632f92cd5d60e11b81523360048201527f00000000000000000000000000000000000000000000000000000000000000006001600160a01b031690635f259aba90602401602060405180830381865afa1580156106d0573d6000803e3d6000fd5b505050506040513d601f19601f820116820180604052508101906106f491906109ee565b610711576040516361081c1560e01b815260040160405180910390fd5b60408051808201909152600281526105a360f41b60208201526001600160a01b0382166107515760405162461bcd60e51b815260040161057d9190610a10565b506001600160a01b038116600090815260046020908152604091829020548251808401909352600383526221a91960e91b9183019190915260ff16156107aa5760405162461bcd60e51b815260040161057d9190610a10565b506003805460018082019092557fc2575a0e9e593c00f959f8c92f12db2869c3395a3b0502d05e2516446f71f85b0180546001600160a01b0319166001600160a01b038416908117909155600081815260046020526040808220805460ff1916909417909355915190917f58ad3cfc4b6552a53c8c4128ae9b080e14b4378a159280643a62c6f709cee24f91a250565b6108426108c9565b6000805460ff191690557f5db9ee0a495bf2e6ff9c91a7834c1ba4fdd244a5e8aa4e537bd38aeae4b073aa335b6040516001600160a01b03909116815260200160405180910390a1565b610894610912565b6000805460ff191660011790557f62e78cea01bee320cd4e420270b5ea74000d11b0c9f74754ebdbfc544b05a25861086f3390565b60005460ff166103175760405162461bcd60e51b815260206004820152601460248201527314185d5cd8589b194e881b9bdd081c185d5cd95960621b604482015260640161057d565b60005460ff16156103175760405162461bcd60e51b815260206004820152601060248201526f14185d5cd8589b194e881c185d5cd95960821b604482015260640161057d565b60006020828403121561096a57600080fd5b5035919050565b60006020828403121561098357600080fd5b81356001600160a01b038116811461099a57600080fd5b9392505050565b6020808252825182820181905260009190848201906040850190845b818110156109e25783516001600160a01b0316835292840192918401916001016109bd565b50909695505050505050565b600060208284031215610a0057600080fd5b8151801515811461099a57600080fd5b600060208083528351808285015260005b81811015610a3d57858101830151858201604001528201610a21565b506000604082860101526040601f19601f830116850101925050509291505056fea26469706673582212200165d12495f46ea6b90db275dc0ffbe0092ae79649978a2f35c0eaa9ba89b4cd64736f6c6343000811003360e06040523480156200001157600080fd5b506040516200443b3803806200443b833981016040819052620000349162000160565b6001600160a01b0381166200005c57604051635919af9760e11b815260040160405180910390fd5b6001600160a01b03811660808190526040805163c513c9bb60e01b8152905163c513c9bb916004808201926020929091908290030181865afa158015620000a7573d6000803e3d6000fd5b505050506040513d601f19601f82011682018060405250810190620000cd919062000160565b6001600160a01b031660a0816001600160a01b0316815250506080516001600160a01b0316634c252f916040518163ffffffff1660e01b8152600401602060405180830381865afa15801562000127573d6000803e3d6000fd5b505050506040513d601f19601f820116820180604052508101906200014d919062000160565b6001600160a01b031660c0525062000192565b6000602082840312156200017357600080fd5b81516001600160a01b03811681146200018b57600080fd5b9392505050565b60805160a05160c05161421e6200021d6000396000818161015b0152818161159e01526120ea0152600081816101c001528181611033015281816118480152818161194301528181611a1001528181611ba401528181611c9f01528181611d4a01528181611df001528181611f02015281816130f4015261319a0152600061011c015261421e6000f3fe608060405234801561001057600080fd5b50600436106100b45760003560e01c806354fd4d501161007157806354fd4d5014610190578063663b8fdb146101a65780637a0c7b21146101bb578063a80deda3146101e2578063ae093f3f14610202578063fc9914cb1461022257600080fd5b80630dbd616d146100b957806313d21cdf146100e25780631bcd8fc0146101025780632954018c146101175780634b2f336d146101565780634c472fc91461017d575b600080fd5b6100cc6100c736600461371b565b610245565b6040516100d991906138f5565b60405180910390f35b6100f56100f0366004613908565b61100a565b6040516100d99190613a07565b61010a611842565b6040516100d99190613a16565b61013e7f000000000000000000000000000000000000000000000000000000000000000081565b6040516001600160a01b0390911681526020016100d9565b61013e7f000000000000000000000000000000000000000000000000000000000000000081565b61013e61018b36600461371b565b6119ec565b610198600281565b6040519081526020016100d9565b6101ae611b9e565b6040516100d99190613cdd565b61013e7f000000000000000000000000000000000000000000000000000000000000000081565b6101f56101f0366004613908565b611d43565b6040516100d99190613d3f565b610215610210366004613908565b611fc5565b6040516100d99190613d94565b61023561023036600461371b565b6130d0565b60405190151581526020016100d9565b61024d6134d6565b600080600080600061025e8861318e565b509450945094509450945060008560ff166001146102e557604051633a562dc160e21b81526001600160a01b03898116600483015284169063e958b70490602401602060405180830381865afa1580156102bc573d6000803e3d6000fd5b505050506040513d601f19601f820116820180604052508101906102e09190613db7565b61034f565b604051633a562dc160e21b81526001600160a01b03898116600483015286169063e958b70490602401602060405180830381865afa15801561032b573d6000803e3d6000fd5b505050506040513d601f19601f8201168201806040525081019061034f9190613db7565b60ff871661022089018190526001600160a01b03808b1660208b01528b811660608b01528216895290915060010361071a57846001600160a01b0316632495a5996040518163ffffffff1660e01b8152600401602060405180830381865afa1580156103bf573d6000803e3d6000fd5b505050506040513d601f19601f820116820180604052508101906103e39190613db7565b6001600160a01b0390811660808901526040516363ef1c5360e11b815282821660048201529085169063c7de38a690602401602060405180830381865afa158015610432573d6000803e3d6000fd5b505050506040513d601f19601f820116820180604052508101906104569190613dd4565b60e088015260405163dfd5946560e01b81526001600160a01b03828116600483015285169063dfd5946590602401602060405180830381865afa1580156104a1573d6000803e3d6000fd5b505050506040513d601f19601f820116820180604052508101906104c59190613dd4565b610100880152604051633ce0735560e01b81526001600160a01b03898116600483015260006024830152861690633ce0735590604401602060405180830381865afa925050508015610534575060408051601f3d908101601f1916820190925261053191810190613dd4565b60015b15610540576101608801525b604051633ce0735560e01b81526001600160a01b03898116600483015260016024830152861690633ce0735590604401602060405180830381865afa9250505080156105a9575060408051601f3d908101601f191682019092526105a691810190613dd4565b60015b156105b5576101808801525b60e087015160405163132c653f60e31b81526001600160a01b0383811660048301526024820192909252600060448201529086169063996329f89060640160a060405180830381865afa92505050801561062c575060408051601f3d908101601f1916820190925261062991810190613ded565b60015b1561063e57505015156101a08a015250505b806001600160a01b0316631afbb7a46040518163ffffffff1660e01b8152600401602060405180830381865afa15801561067c573d6000803e3d6000fd5b505050506040513d601f19601f820116820180604052508101906106a09190613dd4565b6101c0880152604051630c64865760e21b81526001600160a01b038281166004830152851690633192195c90602401602060405180830381865afa1580156106ec573d6000803e3d6000fd5b505050506040513d601f19601f820116820180604052508101906107109190613dd4565b60a08801526108df565b826001600160a01b0316636f307dc36040518163ffffffff1660e01b8152600401602060405180830381865afa158015610758573d6000803e3d6000fd5b505050506040513d601f19601f8201168201806040525081019061077c9190613db7565b6001600160a01b0390811660808901526040516363ef1c5360e11b815282821660048201529083169063c7de38a6906024016040805180830381865afa1580156107ca573d6000803e3d6000fd5b505050506040513d601f19601f820116820180604052508101906107ee9190613e2d565b5060e088015260405163dfd5946560e01b81526001600160a01b03828116600483015283169063dfd5946590602401602060405180830381865afa15801561083a573d6000803e3d6000fd5b505050506040513d601f19601f8201168201806040525081019061085e9190613dd4565b610100880152604051630c64865760e21b81526001600160a01b038281166004830152841690633192195c90602401606060405180830381865afa1580156108aa573d6000803e3d6000fd5b505050506040513d601f19601f820116820180604052508101906108ce9190613e51565b60c08a015260a08901526101c08801525b60008660ff1660011461095357836001600160a01b03166316f0115b6040518163ffffffff1660e01b8152600401602060405180830381865afa15801561092a573d6000803e3d6000fd5b505050506040513d601f19601f8201168201806040525081019061094e9190613db7565b6109b5565b856001600160a01b031663570a7af26040518163ffffffff1660e01b8152600401602060405180830381865afa158015610991573d6000803e3d6000fd5b505050506040513d601f19601f820116820180604052508101906109b59190613db7565b9050806001600160a01b03166345d31f9d6040518163ffffffff1660e01b8152600401602060405180830381865afa1580156109f5573d6000803e3d6000fd5b505050506040513d601f19601f82011682018060405250810190610a199190613dd4565b6101208901526000600160ff891614610a9357846001600160a01b031663458936f56040518163ffffffff1660e01b8152600401602060405180830381865afa158015610a6a573d6000803e3d6000fd5b505050506040513d601f19601f82011682018060405250810190610a8e9190613dd4565b610af5565b856001600160a01b03166320a05ff76040518163ffffffff1660e01b8152600401602060405180830381865afa158015610ad1573d6000803e3d6000fd5b505050506040513d601f19601f82011682018060405250810190610af59190613dd4565b90508760ff16600114610b7157604051638991b2f160e01b81526001600160a01b038481166004830152861690638991b2f190602401602060405180830381865afa158015610b48573d6000803e3d6000fd5b505050506040513d601f19601f82011682018060405250810190610b6c9190613dd4565b610bdb565b604051632d1473b360e21b81526001600160a01b03848116600483015287169063b451cecc90602401602060405180830381865afa158015610bb7573d6000803e3d6000fd5b505050506040513d601f19601f82011682018060405250810190610bdb9190613dd4565b6102408a01528067ffffffffffffffff811115610bfa57610bfa613e7f565b604051908082528060200260200182016040528015610c4c57816020015b604080516080810182526000808252602080830182905292820181905260608201528252600019909201910181610c185790505b506101408a015260005b81811015610f2657604080516080810182526000808252602082018190529181018290526060810191909152600180831b9060ff8c169003610d8757604051635785328160e11b81526001600160a01b038781166004830152602482018590528a169063af0a650290604401608060405180830381865afa158015610cdf573d6000803e3d6000fd5b505050506040513d601f19601f82011682018060405250810190610d039190613e95565b505060208401526001600160a01b0390811680845260405163f9eaee0d60e01b81526004810191909152908a169063f9eaee0d90602401602060405180830381865afa158015610d57573d6000803e3d6000fd5b505050506040513d601f19601f82011682018060405250810190610d7b9190613ee4565b15156040830152610ed8565b60405163172c48c760e01b8152600481018490526001600160a01b0389169063172c48c7906024016040805180830381865afa158015610dcb573d6000803e3d6000fd5b505050506040513d601f19601f82011682018060405250810190610def9190613f11565b506001600160a01b039081168084526040516370a0823160e01b81529188166004830152906370a0823190602401602060405180830381865afa158015610e3a573d6000803e3d6000fd5b505050506040513d601f19601f82011682018060405250810190610e5e9190613dd4565b6020830152815160405163f9eaee0d60e01b81526001600160a01b0391821660048201529088169063f9eaee0d90602401602060405180830381865afa158015610eac573d6000803e3d6000fd5b505050506040513d601f19601f82011682018060405250810190610ed09190613ee4565b151560408301525b6102408c0151811615610eec576001610eef565b60005b151560608301526101408c0151805183919085908110610f1157610f11613f46565b60209081029190910101525050600101610c56565b50826001600160a01b03166317d11a156040518163ffffffff1660e01b8152600401602060405180830381865afa158015610f65573d6000803e3d6000fd5b505050506040513d601f19601f82011682018060405250810190610f899190613dd4565b896101e0018181525050826001600160a01b0316633dc54b406040518163ffffffff1660e01b8152600401602060405180830381865afa158015610fd1573d6000803e3d6000fd5b505050506040513d601f19601f82011682018060405250810190610ff59190613dd4565b6102008a015250969998505050505050505050565b611012613593565b604051635b16ebb760e01b81526001600160a01b03808416600483015283917f000000000000000000000000000000000000000000000000000000000000000090911690635b16ebb790602401602060405180830381865afa15801561107c573d6000803e3d6000fd5b505050506040513d601f19601f820116820180604052508101906110a09190613ee4565b6110bd57604051631a70964760e31b815260040160405180910390fd5b6001600160a01b0383168083526040805163fe14112d60e01b8152905185929163fe14112d9160048083019260209291908290030181865afa158015611107573d6000803e3d6000fd5b505050506040513d601f19601f8201168201806040525081019061112b9190613dd4565b8360c0018181525050806001600160a01b031663ef8d96036040518163ffffffff1660e01b8152600401602060405180830381865afa158015611172573d6000803e3d6000fd5b505050506040513d601f19601f820116820180604052508101906111969190613dd4565b8360e0018181525050806001600160a01b031663743753596040518163ffffffff1660e01b8152600401602060405180830381865afa1580156111dd573d6000803e3d6000fd5b505050506040513d601f19601f820116820180604052508101906112019190613dd4565b8360a0018181525050806001600160a01b0316634c19386c6040518163ffffffff1660e01b8152600401602060405180830381865afa158015611248573d6000803e3d6000fd5b505050506040513d601f19601f8201168201806040525081019061126c9190613dd4565b83610100018181525050806001600160a01b031663788c6bfe6040518163ffffffff1660e01b8152600401602060405180830381865afa1580156112b4573d6000803e3d6000fd5b505050506040513d601f19601f820116820180604052508101906112d89190613dd4565b83610160018181525050806001600160a01b0316630fce70fb6040518163ffffffff1660e01b8152600401602060405180830381865afa158015611320573d6000803e3d6000fd5b505050506040513d601f19601f820116820180604052508101906113449190613dd4565b836080018181525050806001600160a01b03166345d31f9d6040518163ffffffff1660e01b8152600401602060405180830381865afa15801561138b573d6000803e3d6000fd5b505050506040513d601f19601f820116820180604052508101906113af9190613dd4565b83610140018181525050806001600160a01b0316632495a5996040518163ffffffff1660e01b8152600401602060405180830381865afa1580156113f7573d6000803e3d6000fd5b505050506040513d601f19601f8201168201806040525081019061141b9190613db7565b83604001906001600160a01b031690816001600160a01b031681525050806001600160a01b03166336dda7d56040518163ffffffff1660e01b8152600401602060405180830381865afa158015611476573d6000803e3d6000fd5b505050506040513d601f19601f8201168201806040525081019061149a9190613db7565b83606001906001600160a01b031690816001600160a01b031681525050806001600160a01b031663788c6bfe6040518163ffffffff1660e01b8152600401602060405180830381865afa1580156114f5573d6000803e3d6000fd5b505050506040513d601f19601f820116820180604052508101906115199190613dd4565b83610160018181525050806001600160a01b031663e941fa786040518163ffffffff1660e01b8152600401602060405180830381865afa158015611561573d6000803e3d6000fd5b505050506040513d601f19601f820116820180604052508101906115859190613dd4565b6101808401526040808401516001600160a01b039081167f0000000000000000000000000000000000000000000000000000000000000000821614602080870191909152825163609ae31760e01b815292519184169263609ae31792600480830193928290030181865afa158015611601573d6000803e3d6000fd5b505050506040513d601f19601f820116820180604052508101906116259190613dd4565b836101c0018181525050806001600160a01b031663dbcb313b6040518163ffffffff1660e01b8152600401602060405180830381865afa15801561166d573d6000803e3d6000fd5b505050506040513d601f19601f820116820180604052508101906116919190613dd4565b836101a0018181525050600083606001516001600160a01b03166318160ddd6040518163ffffffff1660e01b8152600401602060405180830381865afa1580156116df573d6000803e3d6000fd5b505050506040513d601f19601f820116820180604052508101906117039190613dd4565b604051630a84f92760e31b8152600481018290529091506000906001600160a01b03841690635427c93890602401602060405180830381865afa15801561174e573d6000803e3d6000fd5b505050506040513d601f19601f820116820180604052508101906117729190613dd4565b905080156117bd5761018085015181906117ae9061179290612710613f72565b8761010001518861014001516117a89190613f85565b90613402565b6117b89190613fb2565b6117c4565b8461014001515b85610120018181525050826001600160a01b03166354fd4d506040518163ffffffff1660e01b8152600401602060405180830381865afa15801561180c573d6000803e3d6000fd5b505050506040513d601f19601f820116820180604052508101906118309190613dd4565b60ff166101e086015250505050919050565b606060007f00000000000000000000000000000000000000000000000000000000000000006001600160a01b031663b4ac68606040518163ffffffff1660e01b8152600401602060405180830381865afa1580156118a4573d6000803e3d6000fd5b505050506040513d601f19601f820116820180604052508101906118c89190613dd4565b90508067ffffffffffffffff8111156118e3576118e3613e7f565b60405190808252806020026020018201604052801561191c57816020015b611909613593565b8152602001906001900390816119015790505b50915060005b818110156119e7576040516315895f4760e31b8152600481018290526000907f00000000000000000000000000000000000000000000000000000000000000006001600160a01b03169063ac4afa3890602401602060405180830381865afa158015611992573d6000803e3d6000fd5b505050506040513d601f19601f820116820180604052508101906119b69190613db7565b90506119c18161100a565b8483815181106119d3576119d3613f46565b602090810291909101015250600101611922565b505090565b604051636fbc6f6b60e01b81526001600160a01b03808416600483015260009184917f00000000000000000000000000000000000000000000000000000000000000001690636fbc6f6b90602401602060405180830381865afa158015611a57573d6000803e3d6000fd5b505050506040513d601f19601f82011682018060405250810190611a7b9190613ee4565b611a9857604051631679e86f60e11b815260040160405180910390fd5b6000806000611aa68761318e565b5050935093505092508260ff16600114611b295760405163fdd5764560e01b81526001600160a01b03878116600483015282169063fdd5764590602401602060405180830381865afa158015611b00573d6000803e3d6000fd5b505050506040513d601f19601f82011682018060405250810190611b249190613db7565b611b93565b60405163fdd5764560e01b81526001600160a01b03878116600483015283169063fdd5764590602401602060405180830381865afa158015611b6f573d6000803e3d6000fd5b505050506040513d601f19601f82011682018060405250810190611b939190613db7565b979650505050505050565b606060007f00000000000000000000000000000000000000000000000000000000000000006001600160a01b031663c29277cd6040518163ffffffff1660e01b8152600401602060405180830381865afa158015611c00573d6000803e3d6000fd5b505050506040513d601f19601f82011682018060405250810190611c249190613dd4565b90508067ffffffffffffffff811115611c3f57611c3f613e7f565b604051908082528060200260200182016040528015611c7857816020015b611c65613630565b815260200190600190039081611c5d5790505b50915060005b818110156119e757604051630785b93f60e21b8152600481018290526000907f00000000000000000000000000000000000000000000000000000000000000006001600160a01b031690631e16e4fc90602401602060405180830381865afa158015611cee573d6000803e3d6000fd5b505050506040513d601f19601f82011682018060405250810190611d129190613db7565b9050611d1d81611fc5565b848381518110611d2f57611d2f613f46565b602090810291909101015250600101611c7e565b60606000807f00000000000000000000000000000000000000000000000000000000000000006001600160a01b031663c29277cd6040518163ffffffff1660e01b8152600401602060405180830381865afa158015611da6573d6000803e3d6000fd5b505050506040513d601f19601f82011682018060405250810190611dca9190613dd4565b905060005b81811015611e8457604051630785b93f60e21b8152600481018290526000907f00000000000000000000000000000000000000000000000000000000000000006001600160a01b031690631e16e4fc90602401602060405180830381865afa158015611e3f573d6000803e3d6000fd5b505050506040513d601f19601f82011682018060405250810190611e639190613db7565b9050611e6f81876130d0565b15611e7b578360010193505b50600101611dcf565b508167ffffffffffffffff811115611e9e57611e9e613e7f565b604051908082528060200260200182016040528015611ed757816020015b611ec46134d6565b815260200190600190039081611ebc5790505b5092506000915060005b81811015611fbd57604051630785b93f60e21b8152600481018290526000907f00000000000000000000000000000000000000000000000000000000000000006001600160a01b031690631e16e4fc90602401602060405180830381865afa158015611f51573d6000803e3d6000fd5b505050506040513d601f19601f82011682018060405250810190611f759190613db7565b9050611f8181876130d0565b15611fb457611f908187610245565b858581518110611fa257611fa2613f46565b60209081029190910101526001909301925b50600101611ee1565b505050919050565b611fcd613630565b600080600080600080611fdf8861318e565b6001600160a01b038e168d5260ff86166101a08e01819052959b5093995091975095509350915060011461207457826001600160a01b0316636f307dc36040518163ffffffff1660e01b8152600401602060405180830381865afa15801561204b573d6000803e3d6000fd5b505050506040513d601f19601f8201168201806040525081019061206f9190613db7565b6120d6565b846001600160a01b0316632495a5996040518163ffffffff1660e01b8152600401602060405180830381865afa1580156120b2573d6000803e3d6000fd5b505050506040513d601f19601f820116820180604052508101906120d69190613db7565b6001600160a01b03908116602089018190527f00000000000000000000000000000000000000000000000000000000000000009091161460608801526000600160ff88161461218657836001600160a01b03166316f0115b6040518163ffffffff1660e01b8152600401602060405180830381865afa15801561215d573d6000803e3d6000fd5b505050506040513d601f19601f820116820180604052508101906121819190613db7565b6121e8565b856001600160a01b031663570a7af26040518163ffffffff1660e01b8152600401602060405180830381865afa1580156121c4573d6000803e3d6000fd5b505050506040513d601f19601f820116820180604052508101906121e89190613db7565b6001600160a01b0381811660408b810182905251632e97ca2160e01b8152918c166004830152919250632e97ca2190602401602060405180830381865afa158015612237573d6000803e3d6000fd5b505050506040513d601f19601f8201168201806040525081019061225b9190613ee4565b15156080890152604080516345d31f9d60e01b815290516001600160a01b038316916345d31f9d9160048083019260209291908290030181865afa1580156122a7573d6000803e3d6000fd5b505050506040513d601f19601f820116820180604052508101906122cb9190613dd4565b8860a0018181525050806001600160a01b031663743753596040518163ffffffff1660e01b8152600401602060405180830381865afa158015612312573d6000803e3d6000fd5b505050506040513d601f19601f820116820180604052508101906123369190613dd4565b6101208901525060ff861660010361241f57846001600160a01b0316639b2cb5d86040518163ffffffff1660e01b8152600401602060405180830381865afa158015612386573d6000803e3d6000fd5b505050506040513d601f19601f820116820180604052508101906123aa9190613dd4565b8760c0018181525050846001600160a01b0316635f48f3936040518163ffffffff1660e01b8152600401602060405180830381865afa1580156123f1573d6000803e3d6000fd5b505050506040513d601f19601f820116820180604052508101906124159190613dd4565b60e0880152612497565b816001600160a01b031663860aefcf6040518163ffffffff1660e01b81526004016040805180830381865afa15801561245c573d6000803e3d6000fd5b505050506040513d601f19601f820116820180604052508101906124809190613fdd565b6001600160801b0390811660e08a01521660c08801525b60008660ff1660011461250b57836001600160a01b031663458936f56040518163ffffffff1660e01b8152600401602060405180830381865afa1580156124e2573d6000803e3d6000fd5b505050506040513d601f19601f820116820180604052508101906125069190613dd4565b61256d565b846001600160a01b03166320a05ff76040518163ffffffff1660e01b8152600401602060405180830381865afa158015612549573d6000803e3d6000fd5b505050506040513d601f19601f8201168201806040525081019061256d9190613dd4565b90508067ffffffffffffffff81111561258857612588613e7f565b6040519080825280602002602001820160405280156125b1578160200160208202803683370190505b506101408901528067ffffffffffffffff8111156125d1576125d1613e7f565b6040519080825280602002602001820160405280156125fa578160200160208202803683370190505b5061018089015260005b8181101561280f578760ff1660010361273f57604051632f2f971360e11b8152600481018290526000906001600160a01b03881690635e5f2e2690602401602060405180830381865afa15801561265f573d6000803e3d6000fd5b505050506040513d601f19601f820116820180604052508101906126839190613db7565b9050808a6101400151838151811061269d5761269d613f46565b6001600160a01b039283166020918202929092010152604051630f064e8760e31b8152828216600482015290881690637832743890602401602060405180830381865afa1580156126f2573d6000803e3d6000fd5b505050506040513d601f19601f820116820180604052508101906127169190613dd4565b8a6101800151838151811061272d5761272d613f46565b60200260200101818152505050612807565b60405163172c48c760e01b8152600481018290526001600160a01b0386169063172c48c7906024016040805180830381865afa158015612783573d6000803e3d6000fd5b505050506040513d601f19601f820116820180604052508101906127a79190613f11565b8061ffff1690508a610140015183815181106127c5576127c5613f46565b602002602001018b610180015184815181106127e3576127e3613f46565b6020026020010182815250826001600160a01b03166001600160a01b031681525050505b600101612604565b50508560ff16600103612a1e576000846001600160a01b03166350e036ff6040518163ffffffff1660e01b8152600401602060405180830381865afa15801561285c573d6000803e3d6000fd5b505050506040513d601f19601f820116820180604052508101906128809190613dd4565b90508067ffffffffffffffff81111561289b5761289b613e7f565b6040519080825280602002602001820160405280156128e057816020015b60408051808201909152600080825260208201528152602001906001900390816128b95790505b5061016089015260005b81811015612a1757604051635094cb4f60e01b8152600481018290526000906001600160a01b03881690635094cb4f90602401602060405180830381865afa15801561293a573d6000803e3d6000fd5b505050506040513d601f19601f8201168201806040525081019061295e9190613db7565b6040805180820182526001600160a01b03808416808352925163fdd5764560e01b81526004810193909352929350916020830191908a169063fdd5764590602401602060405180830381865afa1580156129bc573d6000803e3d6000fd5b505050506040513d601f19601f820116820180604052508101906129e09190613db7565b6001600160a01b03168152508a61016001518381518110612a0357612a03613f46565b6020908102919091010152506001016128ea565b5050612bea565b6000816001600160a01b031663373c8f626040518163ffffffff1660e01b8152600401600060405180830381865afa158015612a5e573d6000803e3d6000fd5b505050506040513d6000823e601f3d908101601f19168201604052612a869190810190614007565b80519091508067ffffffffffffffff811115612aa457612aa4613e7f565b604051908082528060200260200182016040528015612ae957816020015b6040805180820190915260008082526020820152815260200190600190039081612ac25790505b506101608a015260005b81811015612be6576000838281518110612b0f57612b0f613f46565b602002602001015190506040518060400160405280826001600160a01b03168152602001886001600160a01b031663fdd57645846040518263ffffffff1660e01b8152600401612b6e91906001600160a01b0391909116815260200190565b602060405180830381865afa158015612b8b573d6000803e3d6000fd5b505050506040513d601f19601f82011682018060405250810190612baf9190613db7565b6001600160a01b03168152508b61016001518381518110612bd257612bd2613f46565b602090810291909101015250600101612af3565b5050505b8560ff16600103612dc357846001600160a01b031663b2c53a6c6040518163ffffffff1660e01b8152600401602060405180830381865afa158015612c33573d6000803e3d6000fd5b505050506040513d601f19601f82011682018060405250810190612c579190613dd4565b61010088015260ff61028088015260408051635e0b63d360e01b815290516001600160a01b03871691635e0b63d39160048083019260209291908290030181865afa158015612caa573d6000803e3d6000fd5b505050506040513d601f19601f82011682018060405250810190612cce9190613dd4565b61ffff166102a088015260408051631c8affd560e11b815290516001600160a01b03871691633915ffaa9160048083019260209291908290030181865afa158015612d1d573d6000803e3d6000fd5b505050506040513d601f19601f82011682018060405250810190612d419190613dd4565b61ffff166102c088015260408051631c8affd560e11b815290516001600160a01b03871691633915ffaa9160048083019260209291908290030181865afa158015612d90573d6000803e3d6000fd5b505050506040513d601f19601f82011682018060405250810190612db49190613dd4565b61ffff166102e08801526130c5565b81876101c001906001600160a01b031690816001600160a01b031681525050826001600160a01b031663f9aa028a6040518163ffffffff1660e01b8152600401602060405180830381865afa158015612e20573d6000803e3d6000fd5b505050506040513d601f19601f82011682018060405250810190612e449190613db7565b876101e001906001600160a01b031690816001600160a01b031681525050816001600160a01b0316639408b63f6040518163ffffffff1660e01b8152600401602060405180830381865afa158015612ea0573d6000803e3d6000fd5b505050506040513d601f19601f82011682018060405250810190612ec49190613db7565b8761022001906001600160a01b031690816001600160a01b031681525050816001600160a01b031663cff0ab966040518163ffffffff1660e01b8152600401608060405180830381865afa158015612f20573d6000803e3d6000fd5b505050506040513d601f19601f82011682018060405250810190612f4491906140cc565b505015156102408901525060408051639fd12b7760e01b815290516001600160a01b03851691639fd12b779160048083019260209291908290030181865afa158015612f94573d6000803e3d6000fd5b505050506040513d601f19601f82011682018060405250810190612fb89190613dd4565b87610260018181525050826001600160a01b0316638345f26e6040518163ffffffff1660e01b8152600401602060405180830381865afa158015613000573d6000803e3d6000fd5b505050506040513d601f19601f82011682018060405250810190613024919061412c565b60ff1661028088015260408051634d78e9ad60e11b815290516001600160a01b03851691639af1d35a9160048083019260a09291908290030181865afa158015613072573d6000803e3d6000fd5b505050506040513d601f19601f82011682018060405250810190613096919061414f565b61ffff9081166103208d01529081166103008c01529081166102e08b01529081166102c08a0152166102a08801525b505050505050919050565b604051636fbc6f6b60e01b81526001600160a01b03808416600483015260009184917f00000000000000000000000000000000000000000000000000000000000000001690636fbc6f6b90602401602060405180830381865afa15801561313b573d6000803e3d6000fd5b505050506040513d601f19601f8201168201806040525081019061315f9190613ee4565b61317c57604051631679e86f60e11b815260040160405180910390fd5b6131868484613455565b949350505050565b600080600080600080867f00000000000000000000000000000000000000000000000000000000000000006001600160a01b0316636fbc6f6b826040518263ffffffff1660e01b81526004016131f391906001600160a01b0391909116815260200190565b602060405180830381865afa158015613210573d6000803e3d6000fd5b505050506040513d601f19601f820116820180604052508101906132349190613ee4565b61325157604051631679e86f60e11b815260040160405180910390fd5b876001600160a01b03166354fd4d506040518163ffffffff1660e01b8152600401602060405180830381865afa15801561328f573d6000803e3d6000fd5b505050506040513d601f19601f820116820180604052508101906132b39190613dd4565b96508660ff1660010361332c57879550856001600160a01b031663f93f515b6040518163ffffffff1660e01b8152600401602060405180830381865afa158015613301573d6000803e3d6000fd5b505050506040513d601f19601f820116820180604052508101906133259190613db7565b94506133f8565b879350836001600160a01b0316632f7a18816040518163ffffffff1660e01b8152600401602060405180830381865afa15801561336d573d6000803e3d6000fd5b505050506040513d601f19601f820116820180604052508101906133919190613db7565b9250836001600160a01b031663f9aa028a6040518163ffffffff1660e01b8152600401602060405180830381865afa1580156133d1573d6000803e3d6000fd5b505050506040513d601f19601f820116820180604052508101906133f59190613db7565b91505b5091939550919395565b600082158061340f575081155b1561341c5750600061344f565b61271061342a6002826141b4565b61ffff166134388486613f85565b61344291906141d5565b61344c9190613fb2565b90505b92915050565b60405163055ee9b560e01b81526001600160a01b038281166004830152600091829185169063055ee9b590602401602060405180830381865afa1580156134a0573d6000803e3d6000fd5b505050506040513d601f19601f820116820180604052508101906134c49190613db7565b6001600160a01b031614159392505050565b60405180610260016040528060006001600160a01b0316815260200160006001600160a01b0316815260200160001515815260200160006001600160a01b0316815260200160006001600160a01b031681526020016000815260200160008152602001600081526020016000815260200160008152602001606081526020016000815260200160008152602001600015158152602001600081526020016000815260200160008152602001600060ff168152602001600081525090565b60405180610200016040528060006001600160a01b0316815260200160001515815260200160006001600160a01b0316815260200160006001600160a01b031681526020016000815260200160008152602001600081526020016000815260200160008152602001600081526020016000815260200160008152602001600081526020016000815260200160008152602001600060ff1681525090565b604080516103408101825260008082526020820181905291810182905260608082018390526080820183905260a0820183905260c0820183905260e0820183905261010082018390526101208201839052610140820181905261016082018190526101808201526101a081018290526101c081018290526101e08101829052610200810182905261022081018290526102408101829052610260810182905261028081018290526102a081018290526102c081018290526102e08101829052610300810182905261032081019190915290565b6001600160a01b038116811461371857600080fd5b50565b6000806040838503121561372e57600080fd5b823561373981613703565b9150602083013561374981613703565b809150509250929050565b600081518084526020808501945080840160005b838110156137b157815180516001600160a01b03168852838101518489015260408082015115159089015260609081015115159088015260809096019590820190600101613768565b509495945050505050565b80516001600160a01b03168252600061026060208301516137e860208601826001600160a01b03169052565b5060408301516137fc604086018215159052565b50606083015161381760608601826001600160a01b03169052565b50608083015161383260808601826001600160a01b03169052565b5060a083015160a085015260c083015160c085015260e083015160e085015261010080840151818601525061012080840151818601525061014080840151828287015261388183870182613754565b925050506101608084015181860152506101808084015181860152506101a0808401516138b18287018215159052565b50506101c083810151908501526101e0808401519085015261020080840151908501526102208084015160ff16908501526102409283015192909301919091525090565b60208152600061344c60208301846137bc565b60006020828403121561391a57600080fd5b813561392581613703565b9392505050565b80516001600160a01b03168252602081015161394c602084018215159052565b50604081015161396760408401826001600160a01b03169052565b50606081015161398260608401826001600160a01b03169052565b506080818101519083015260a0808201519083015260c0808201519083015260e08082015190830152610100808201519083015261012080820151908301526101408082015190830152610160808201519083015261018080820151908301526101a080820151908301526101c080820151908301526101e09081015160ff16910152565b610200810161344f828461392c565b6020808252825182820181905260009190848201906040850190845b81811015613a5957613a4583855161392c565b928401926102009290920191600101613a32565b50909695505050505050565b600081518084526020808501945080840160005b838110156137b15781516001600160a01b031687529582019590820190600101613a79565b600081518084526020808501945080840160005b838110156137b157815180516001600160a01b03908116895290840151168388015260409096019590820190600101613ab2565b600081518084526020808501945080840160005b838110156137b157815187529582019590820190600101613afa565b80516001600160a01b0316825260006103406020830151613b4260208601826001600160a01b03169052565b506040830151613b5d60408601826001600160a01b03169052565b506060830151613b71606086018215159052565b506080830151613b85608086018215159052565b5060a083015160a085015260c083015160c085015260e083015160e0850152610100808401518186015250610120808401518186015250610140808401518282870152613bd483870182613a65565b925050506101608084015185830382870152613bf08382613a9e565b925050506101808084015185830382870152613c0c8382613ae6565b925050506101a080840151613c258287018260ff169052565b50506101c0838101516001600160a01b03908116918601919091526101e0808501518216908601526102008085015115159086015261022080850151909116908501526102408084015115159085015261026080840151908501526102808084015160ff16908501526102a08084015161ffff908116918601919091526102c0808501518216908601526102e08085015182169086015261030080850151821690860152610320938401511692909301919091525090565b6000602080830181845280855180835260408601915060408160051b870101925083870160005b82811015613d3257603f19888603018452613d20858351613b16565b94509285019290850190600101613d04565b5092979650505050505050565b6000602080830181845280855180835260408601915060408160051b870101925083870160005b82811015613d3257603f19888603018452613d828583516137bc565b94509285019290850190600101613d66565b60208152600061344c6020830184613b16565b8051613db281613703565b919050565b600060208284031215613dc957600080fd5b815161392581613703565b600060208284031215613de657600080fd5b5051919050565b600080600080600060a08688031215613e0557600080fd5b5050835160208501516040860151606087015160809097015192989197509594509092509050565b60008060408385031215613e4057600080fd5b505080516020909101519092909150565b600080600060608486031215613e6657600080fd5b8351925060208401519150604084015190509250925092565b634e487b7160e01b600052604160045260246000fd5b60008060008060808587031215613eab57600080fd5b8451613eb681613703565b60208601516040870151606090970151919890975090945092505050565b80518015158114613db257600080fd5b600060208284031215613ef657600080fd5b61344c82613ed4565b805161ffff81168114613db257600080fd5b60008060408385031215613f2457600080fd5b8251613f2f81613703565b9150613f3d60208401613eff565b90509250929050565b634e487b7160e01b600052603260045260246000fd5b634e487b7160e01b600052601160045260246000fd5b8181038181111561344f5761344f613f5c565b808202811582820484141761344f5761344f613f5c565b634e487b7160e01b600052601260045260246000fd5b600082613fc157613fc1613f9c565b500490565b80516001600160801b0381168114613db257600080fd5b60008060408385031215613ff057600080fd5b613ff983613fc6565b9150613f3d60208401613fc6565b6000602080838503121561401a57600080fd5b825167ffffffffffffffff8082111561403257600080fd5b818501915085601f83011261404657600080fd5b81518181111561405857614058613e7f565b8060051b604051601f19603f8301168101818110858211171561407d5761407d613e7f565b60405291825284820192508381018501918883111561409b57600080fd5b938501935b828510156140c0576140b185613da7565b845293850193928501926140a0565b98975050505050505050565b600080600080608085870312156140e257600080fd5b6140eb85613fc6565b93506140f960208601613ed4565b9250604085015164ffffffffff8116811461411357600080fd5b915061412160608601613eff565b905092959194509250565b60006020828403121561413e57600080fd5b815160ff8116811461392557600080fd5b600080600080600060a0868803121561416757600080fd5b61417086613eff565b945061417e60208701613eff565b935061418c60408701613eff565b925061419a60608701613eff565b91506141a860808701613eff565b90509295509295909350565b600061ffff808416806141c9576141c9613f9c565b92169190910492915050565b8082018082111561344f5761344f613f5c56fea264697066735822122033db04dd6ad85cbb23c61a3c1df229cdee23950afa0e93d191a4e60c173de79664736f6c6343000811003360a06040523480156200001157600080fd5b50604051620016b2380380620016b283398101604081905262000034916200060c565b6000805460ff19169055816001600160a01b0381166200006757604051635919af9760e11b815260040160405180910390fd5b806001600160a01b031663087376956040518163ffffffff1660e01b8152600401602060405180830381865afa158015620000a6573d6000803e3d6000fd5b505050506040513d601f19601f82011682018060405250810190620000cc91906200070e565b6001600160a01b031660805250805160005b8181101562000142576200013983828151811062000100576200010062000733565b60200260200101516000015184838151811062000121576200012162000733565b6020026020010151602001516200014c60201b60201c565b600101620000de565b5050505062000827565b6001600160a01b03821615806200016a57506001600160a01b038116155b156200018957604051635919af9760e11b815260040160405180910390fd5b620001a8826001600160a01b0316620004b560201b620005591760201c565b620001d65760405163df4c572d60e01b81526001600160a01b03831660048201526024015b60405180910390fd5b620001f5816001600160a01b0316620004b560201b620005591760201c565b6200021f5760405163df4c572d60e01b81526001600160a01b0382166004820152602401620001cd565b806001600160a01b031663313ce5676040518163ffffffff1660e01b8152600401602060405180830381865afa9250505080156200027c575060408051601f3d908101601f19168201909252620002799181019062000749565b60015b6200029a576040516367a7cd4360e01b815260040160405180910390fd5b8060ff16600814620002bf576040516367a7cd4360e01b815260040160405180910390fd5b506000816001600160a01b031663d62ada116040518163ffffffff1660e01b8152600401602060405180830381865afa9250505080156200031f575060408051601f3d908101601f191682019092526200031c918101906200076e565b60015b15620003285790505b6000836001600160a01b031663313ce5676040518163ffffffff1660e01b8152600401602060405180830381865afa92505050801562000387575060408051601f3d908101601f19168201909252620003849181019062000749565b60015b620003a55760405163528ca31d60e01b815260040160405180910390fd5b60128160ff161115620003cb5760405163528ca31d60e01b815260040160405180910390fd5b9050826001600160a01b031663feaf968c6040518163ffffffff1660e01b815260040160a060405180830381865afa9250505080156200042a575060408051601f3d908101601f191682019092526200042791810190620007aa565b60015b62000448576040516367a7cd4360e01b815260040160405180910390fd5b866200045c576200045c85858484620004c4565b50505050506200046f848484846200052a565b826001600160a01b0316846001600160a01b03167fe263805b03657ab13064915d0723c5ce14981547e7cba5283f66b9e5d81f6e6e60405160405180910390a350505050565b6001600160a01b03163b151590565b60008313620004e6576040516356e05d2b60e01b815260040160405180910390fd5b836001600160501b0316816001600160501b0316108062000505575081155b15620005245760405163b1cf675560e01b815260040160405180910390fd5b50505050565b6001600160a01b03831682156200054257600160a11b175b6200055860ff60a21b60a284901b1682620007ff565b6001600160a01b0390951660009081526001602052604090209490945550505050565b80516001600160a01b03811681146200059357600080fd5b919050565b634e487b7160e01b600052604160045260246000fd5b604080519081016001600160401b0381118282101715620005d357620005d362000598565b60405290565b604051601f8201601f191681016001600160401b038111828210171562000604576200060462000598565b604052919050565b60008060408084860312156200062157600080fd5b6200062c846200057b565b602085810151919450906001600160401b03808211156200064c57600080fd5b818701915087601f8301126200066157600080fd5b81518181111562000676576200067662000598565b62000686848260051b01620005d9565b818152848101925060069190911b830184019089821115620006a757600080fd5b928401925b81841015620006fe5785848b031215620006c65760008081fd5b620006d0620005ae565b620006db856200057b565b8152620006ea8686016200057b565b8187015283529285019291840191620006ac565b8096505050505050509250929050565b6000602082840312156200072157600080fd5b6200072c826200057b565b9392505050565b634e487b7160e01b600052603260045260246000fd5b6000602082840312156200075c57600080fd5b815160ff811681146200072c57600080fd5b6000602082840312156200078157600080fd5b815180151581146200072c57600080fd5b80516001600160501b03811681146200059357600080fd5b600080600080600060a08688031215620007c357600080fd5b620007ce8662000792565b9450602086015193506040860151925060608601519150620007f36080870162000792565b90509295509295909350565b808201808211156200082157634e487b7160e01b600052601160045260246000fd5b92915050565b608051610e5a62000858600039600081816101950152818161023d01528181610360015261043e0152610e5a6000f3fe608060405234801561001057600080fd5b50600436106100cf5760003560e01c80638456cb591161008c578063b66102df11610066578063b66102df146101b7578063e8a97a3e146101ca578063f190e5fa146101dd578063f9a650301461021557600080fd5b80638456cb591461015d5780639dcb511a14610165578063a50cf2c81461019057600080fd5b80633f4ba83a146100d457806341976e09146100de57806354fd4d50146101045780635c975abb1461010c5780635cecbd0e146101225780637afb01041461014a575b600080fd5b6100dc610228565b005b6100f16100ec366004610b29565b6102d7565b6040519081526020015b60405180910390f35b6100f1600281565b60005460ff1660405190151581526020016100fb565b610135610130366004610b4b565b6102e9565b604080519283526020830191909152016100fb565b6100f1610158366004610b91565b61030d565b6100dc61034b565b610178610173366004610b29565b6103f8565b6040516001600160a01b0390911681526020016100fb565b6101787f000000000000000000000000000000000000000000000000000000000000000081565b6100f16101c5366004610bbd565b61040c565b6100dc6101d8366004610bf9565b610429565b6101f06101eb366004610b29565b6104dc565b604080516001600160a01b0390941684529115156020840152908201526060016100fb565b6100f1610223366004610b91565b610531565b604051630d4eb5db60e41b81523360048201527f00000000000000000000000000000000000000000000000000000000000000006001600160a01b03169063d4eb5db090602401602060405180830381865afa15801561028c573d6000803e3d6000fd5b505050506040513d601f19601f820116820180604052508101906102b09190610c23565b6102cd5760405163081996f760e11b815260040160405180910390fd5b6102d5610568565b565b60006102e2826105ba565b5092915050565b6000806102f68686610531565b91506103028484610531565b905094509492505050565b600080600061031b846105ba565b90925090508161032c82600a610d3f565b6103369087610d4b565b6103409190610d62565b925050505b92915050565b604051630e907b1960e21b81523360048201527f00000000000000000000000000000000000000000000000000000000000000006001600160a01b031690633a41ec6490602401602060405180830381865afa1580156103af573d6000803e3d6000fd5b505050506040513d601f19601f820116820180604052508101906103d39190610c23565b6103f05760405163d794b1e760e01b815260040160405180910390fd5b6102d5610665565b6000610403826104dc565b50909392505050565b600061042161041b8585610531565b8361030d565b949350505050565b604051632f92cd5d60e11b81523360048201527f00000000000000000000000000000000000000000000000000000000000000006001600160a01b031690635f259aba90602401602060405180830381865afa15801561048d573d6000803e3d6000fd5b505050506040513d601f19601f820116820180604052508101906104b19190610c23565b6104ce576040516361081c1560e01b815260040160405180910390fd5b6104d882826106a2565b5050565b6001600160a01b03811660009081526001602052604081205481908190808203610519576040516325dc56c160e11b815260040160405180910390fd5b94600160a11b86161515945060a286901c9350915050565b600080600061053f846105ba565b909250905061054f81600a610d3f565b6103368387610d4b565b6001600160a01b03163b151590565b6105706109c7565b6000805460ff191690557f5db9ee0a495bf2e6ff9c91a7834c1ba4fdd244a5e8aa4e537bd38aeae4b073aa335b6040516001600160a01b03909116815260200160405180910390a1565b6000806000806105c9856104dc565b809550819350829450505050600080600080856001600160a01b031663feaf968c6040518163ffffffff1660e01b815260040160a060405180830381865afa158015610619573d6000803e3d6000fd5b505050506040513d601f19601f8201168201806040525081019061063d9190610d9e565b945094505093509350846106575761065784848484610a10565b829750505050505050915091565b61066d610a79565b6000805460ff191660011790557f62e78cea01bee320cd4e420270b5ea74000d11b0c9f74754ebdbfc544b05a25861059d3390565b6001600160a01b03821615806106bf57506001600160a01b038116155b156106dd57604051635919af9760e11b815260040160405180910390fd5b6001600160a01b0382163b6107155760405163df4c572d60e01b81526001600160a01b03831660048201526024015b60405180910390fd5b6001600160a01b0381163b6107485760405163df4c572d60e01b81526001600160a01b038216600482015260240161070c565b806001600160a01b031663313ce5676040518163ffffffff1660e01b8152600401602060405180830381865afa9250505080156107a2575060408051601f3d908101601f1916820190925261079f91810190610dee565b60015b6107bf576040516367a7cd4360e01b815260040160405180910390fd5b8060ff166008146107e3576040516367a7cd4360e01b815260040160405180910390fd5b506000816001600160a01b031663d62ada116040518163ffffffff1660e01b8152600401602060405180830381865afa925050508015610840575060408051601f3d908101601f1916820190925261083d91810190610c23565b60015b156108485790505b6000836001600160a01b031663313ce5676040518163ffffffff1660e01b8152600401602060405180830381865afa9250505080156108a4575060408051601f3d908101601f191682019092526108a191810190610dee565b60015b6108c15760405163528ca31d60e01b815260040160405180910390fd5b60128160ff1611156108e65760405163528ca31d60e01b815260040160405180910390fd5b9050826001600160a01b031663feaf968c6040518163ffffffff1660e01b815260040160a060405180830381865afa925050508015610942575060408051601f3d908101601f1916820190925261093f91810190610d9e565b60015b61095f576040516367a7cd4360e01b815260040160405180910390fd5b866109705761097085858484610a10565b505050505061098184848484610abf565b826001600160a01b0316846001600160a01b03167fe263805b03657ab13064915d0723c5ce14981547e7cba5283f66b9e5d81f6e6e60405160405180910390a350505050565b60005460ff166102d55760405162461bcd60e51b815260206004820152601460248201527314185d5cd8589b194e881b9bdd081c185d5cd95960621b604482015260640161070c565b60008313610a31576040516356e05d2b60e01b815260040160405180910390fd5b8369ffffffffffffffffffff168169ffffffffffffffffffff161080610a55575081155b15610a735760405163b1cf675560e01b815260040160405180910390fd5b50505050565b60005460ff16156102d55760405162461bcd60e51b815260206004820152601060248201526f14185d5cd8589b194e881c185d5cd95960821b604482015260640161070c565b6001600160a01b0383168215610ad657600160a11b175b610aea60ff60a21b60a284901b1682610e11565b6001600160a01b0390951660009081526001602052604090209490945550505050565b80356001600160a01b0381168114610b2457600080fd5b919050565b600060208284031215610b3b57600080fd5b610b4482610b0d565b9392505050565b60008060008060808587031215610b6157600080fd5b84359350610b7160208601610b0d565b925060408501359150610b8660608601610b0d565b905092959194509250565b60008060408385031215610ba457600080fd5b82359150610bb460208401610b0d565b90509250929050565b600080600060608486031215610bd257600080fd5b83359250610be260208501610b0d565b9150610bf060408501610b0d565b90509250925092565b60008060408385031215610c0c57600080fd5b610c1583610b0d565b9150610bb460208401610b0d565b600060208284031215610c3557600080fd5b81518015158114610b4457600080fd5b634e487b7160e01b600052601160045260246000fd5b600181815b80851115610c96578160001904821115610c7c57610c7c610c45565b80851615610c8957918102915b93841c9390800290610c60565b509250929050565b600082610cad57506001610345565b81610cba57506000610345565b8160018114610cd05760028114610cda57610cf6565b6001915050610345565b60ff841115610ceb57610ceb610c45565b50506001821b610345565b5060208310610133831016604e8410600b8410161715610d19575081810a610345565b610d238383610c5b565b8060001904821115610d3757610d37610c45565b029392505050565b6000610b448383610c9e565b808202811582820484141761034557610345610c45565b600082610d7f57634e487b7160e01b600052601260045260246000fd5b500490565b805169ffffffffffffffffffff81168114610b2457600080fd5b600080600080600060a08688031215610db657600080fd5b610dbf86610d84565b9450602086015193506040860151925060608601519150610de260808701610d84565b90509295509295909350565b600060208284031215610e0057600080fd5b815160ff81168114610b4457600080fd5b8082018082111561034557610345610c4556fea264697066735822122069c2fd2db6d7dc1b5845e60541bf11eeb508185a9ae85239b49627abfd6b814564736f6c6343000811003360e06040523480156200001157600080fd5b5060405162002349380380620023498339810160408190526200003491620004af565b6000805460ff19169055806001600160a01b0381166200006757604051635919af9760e11b815260040160405180910390fd5b806001600160a01b031663087376956040518163ffffffff1660e01b8152600401602060405180830381865afa158015620000a6573d6000803e3d6000fd5b505050506040513d601f19601f82011682018060405250810190620000cc9190620004af565b6001600160a01b039081166080526001805560408051808201909152600281526105a360f41b602082015291508216620001245760405162461bcd60e51b81526004016200011b9190620004e1565b60405180910390fd5b50806001600160a01b031663c513c9bb6040518163ffffffff1660e01b8152600401602060405180830381865afa15801562000164573d6000803e3d6000fd5b505050506040513d601f19601f820116820180604052508101906200018a9190620004af565b6001600160a01b031660c052604051620001a490620004a1565b604051809103906000f080158015620001c1573d6000803e3d6000fd5b506001600160a01b031660a08190526040805163204a7f0760e21b81529051638129fc1c9160048082019260009290919082900301818387803b1580156200020857600080fd5b505af11580156200021d573d6000803e3d6000fd5b50505050620002316200028a60201b60201c565b50600454600380546001600160a01b039092166001600160a01b03199283161790556000805260026020527fac33ff75c19e70fe83507db0d683fd3465c996598dc972688b7ace676c89077b8054909116905562000531565b6000620002a460a0516200038c60201b62000d091760201c565b9050806001600160a01b0316638129fc1c6040518163ffffffff1660e01b8152600401600060405180830381600087803b158015620002e257600080fd5b505af1158015620002f7573d6000803e3d6000fd5b5050600480546001600160a01b03908116600090815260026020908152604090912080546001600160a01b03199081169388169384179091558354169091179091556200035492506005915083906200042f811b62000da317901c565b506040516001600160a01b038216907f9f69b6c10f6810213e055b0ba6bc0a4e2603f73c221aad77ea35da819cda7dc390600090a250565b6000763d602d80600a3d3981f3363d3d373d3d3d363d730000008260601b60e81c176000526e5af43d82803e903d91602b57fd5bf38260781b17602052603760096000f090506001600160a01b0381166200042a5760405162461bcd60e51b815260206004820152601660248201527f455243313136373a20637265617465206661696c65640000000000000000000060448201526064016200011b565b919050565b600062000446836001600160a01b0384166200044f565b90505b92915050565b6000818152600183016020526040812054620004985750815460018181018455600084815260208082209093018490558454848252828601909352604090209190915562000449565b50600062000449565b610b1a806200182f83390190565b600060208284031215620004c257600080fd5b81516001600160a01b0381168114620004da57600080fd5b9392505050565b600060208083528351808285015260005b818110156200051057858101830151858201604001528201620004f2565b506000604082860101526040601f19601f8301168501019250505092915050565b60805160a05160c05161129d6200059260003960008181610213015281816102eb01526108850152600081816101b80152610c120152600081816102600152818161049501528181610729015281816107d80152610a94015261129d6000f3fe608060405234801561001057600080fd5b50600436106101215760003560e01c806388f64c54116100ad578063b193976311610071578063b193976314610295578063b60e85181461029d578063d82ecc48146102a5578063e3ba9ace146102b8578063f23953ab146102cb57600080fd5b806388f64c541461020e57806389b77b3e146102355780638f7dcfa314610248578063a50cf2c81461025b578063a904aab61461028257600080fd5b806354fd4d50116100f457806354fd4d50146101865780635c975abb1461019c5780635da33c5b146101b3578063765e0159146101da5780638456cb591461020657600080fd5b806313d8c8401461012657806321d18456146101565780632932472f146101695780633f4ba83a1461017e575b600080fd5b600454610139906001600160a01b031681565b6040516001600160a01b0390911681526020015b60405180910390f35b6101396101643660046110c0565b6102d3565b61017c6101773660046110f9565b610480565b005b61017c610714565b61018e600181565b60405190815260200161014d565b60005460ff165b604051901515815260200161014d565b6101397f000000000000000000000000000000000000000000000000000000000000000081565b6101396101e836600461113c565b6001600160a01b039081166000908152600260205260409020541690565b61017c6107c3565b6101397f000000000000000000000000000000000000000000000000000000000000000081565b61017c61024336600461113c565b610870565b600354610139906001600160a01b031681565b6101397f000000000000000000000000000000000000000000000000000000000000000081565b61017c6102903660046110f9565b610a7f565b61018e610b8c565b61018e610be0565b6101a36102b336600461113c565b610bf1565b6101396102c6366004611157565b610bfe565b61017c610c0b565b604051636fbc6f6b60e01b81523360048201526000907f00000000000000000000000000000000000000000000000000000000000000006001600160a01b031690636fbc6f6b90602401602060405180830381865afa15801561033a573d6000803e3d6000fd5b505050506040513d601f19601f8201168201806040525081019061035e9190611170565b60405180604001604052806002815260200161043560f41b815250906103a05760405162461bcd60e51b81526004016103979190611192565b60405180910390fd5b506103a9610dbf565b600380546001600160a01b038082166000818152600260205260409081902080549093166001600160a01b03199485161790945581549092169055905163c75b5a7160e01b81523360048201526024810185905260448101849052819063c75b5a7190606401600060405180830381600087803b15801561042957600080fd5b505af115801561043d573d6000803e3d6000fd5b50506040513392506001600160a01b03841691507ff3ede7039176503a8ad1fe7cfaa29475a9dbe0cdcaf04ecf9a5c10570c47b10390600090a390505b92915050565b604051632f92cd5d60e11b81523360048201527f00000000000000000000000000000000000000000000000000000000000000006001600160a01b031690635f259aba90602401602060405180830381865afa1580156104e4573d6000803e3d6000fd5b505050506040513d601f19601f820116820180604052508101906105089190611170565b610525576040516361081c1560e01b815260040160405180910390fd5b61052d610dbf565b6003546001600160a01b0380841691160361057e57600380546001600160a01b03808216600090815260026020526040902080549091166001600160a01b0319928316179092558154169055610651565b6001600160a01b03838116600090815260026020908152604091829020548251808401909352600383526241463360e81b9183019190915290918481169116146105db5760405162461bcd60e51b81526004016103979190611192565b506004546001600160a01b039081169083160361060e57600480546001600160a01b0319166001600160a01b0385161790555b6001600160a01b03828116600081815260026020526040808220805488861684529183208054929095166001600160a01b03199283161790945591905281541690555b60405163c75b5a7160e01b81526001600160a01b038281166004830152600060248301819052604483015283169063c75b5a7190606401600060405180830381600087803b1580156106a257600080fd5b505af11580156106b6573d6000803e3d6000fd5b505050506106ce826005610de990919063ffffffff16565b50806001600160a01b0316826001600160a01b03167f25e267469ba2ae82515be7b3d45df60bf8308343f0809e8cf7319058e2255ce660405160405180910390a3505050565b604051630d4eb5db60e41b81523360048201527f00000000000000000000000000000000000000000000000000000000000000006001600160a01b03169063d4eb5db090602401602060405180830381865afa158015610778573d6000803e3d6000fd5b505050506040513d601f19601f8201168201806040525081019061079c9190611170565b6107b95760405163081996f760e11b815260040160405180910390fd5b6107c1610dfe565b565b604051630e907b1960e21b81523360048201527f00000000000000000000000000000000000000000000000000000000000000006001600160a01b031690633a41ec6490602401602060405180830381865afa158015610827573d6000803e3d6000fd5b505050506040513d601f19601f8201168201806040525081019061084b9190611170565b6108685760405163d794b1e760e01b815260040160405180910390fd5b6107c1610e50565b604051636fbc6f6b60e01b81523360048201527f00000000000000000000000000000000000000000000000000000000000000006001600160a01b031690636fbc6f6b90602401602060405180830381865afa1580156108d4573d6000803e3d6000fd5b505050506040513d601f19601f820116820180604052508101906108f89190611170565b60405180604001604052806002815260200161043560f41b815250906109315760405162461bcd60e51b81526004016103979190611192565b5061093d600582610e8d565b6040518060400160405280600381526020016210518d60ea1b815250906109775760405162461bcd60e51b81526004016103979190611192565b5043816001600160a01b0316633dc54b406040518163ffffffff1660e01b8152600401602060405180830381865afa1580156109b7573d6000803e3d6000fd5b505050506040513d601f19601f820116820180604052508101906109db91906111e0565b14156040518060400160405280600381526020016241463160e81b81525090610a175760405162461bcd60e51b81526004016103979190611192565b50600480546001600160a01b0390811660009081526002602052604080822080546001600160a01b03199081169487169485179091558454168317909355915190917fced6ab9afc868b3a088366f6631ae20752993b5cce5d5f0534ea5a59fcc57d5691a250565b604051632f92cd5d60e11b81523360048201527f00000000000000000000000000000000000000000000000000000000000000006001600160a01b031690635f259aba90602401602060405180830381865afa158015610ae3573d6000803e3d6000fd5b505050506040513d601f19601f82011682018060405250810190610b079190611170565b610b24576040516361081c1560e01b815260040160405180910390fd5b6040516319a1603960e01b81526001600160a01b03838116600483015282811660248301528416906319a1603990604401600060405180830381600087803b158015610b6f57600080fd5b505af1158015610b83573d6000803e3d6000fd5b50505050505050565b60035460009081906001600160a01b03165b6001600160a01b03811615610bda576001600160a01b039081166000908152600260205260409020541681610bd28161120f565b925050610b9e565b50919050565b6000610bec6005610eaf565b905090565b600061047a600583610e8d565b600061047a600583610eb9565b6000610c367f0000000000000000000000000000000000000000000000000000000000000000610d09565b9050806001600160a01b0316638129fc1c6040518163ffffffff1660e01b8152600401600060405180830381600087803b158015610c7357600080fd5b505af1158015610c87573d6000803e3d6000fd5b5050600480546001600160a01b03908116600090815260026020526040902080546001600160a01b031990811692871692831790915582541617905550610cd19050600582610da3565b506040516001600160a01b038216907f9f69b6c10f6810213e055b0ba6bc0a4e2603f73c221aad77ea35da819cda7dc390600090a250565b6000763d602d80600a3d3981f3363d3d373d3d3d363d730000008260601b60e81c176000526e5af43d82803e903d91602b57fd5bf38260781b17602052603760096000f090506001600160a01b038116610d9e5760405162461bcd60e51b8152602060048201526016602482015275115490cc4c4d8dce8818dc99585d194819985a5b195960521b6044820152606401610397565b919050565b6000610db8836001600160a01b038416610ec5565b9392505050565b6003546001600160a01b03908116600090815260026020526040902054166107c1576107c1610c0b565b6000610db8836001600160a01b038416610f14565b610e06611007565b6000805460ff191690557f5db9ee0a495bf2e6ff9c91a7834c1ba4fdd244a5e8aa4e537bd38aeae4b073aa335b6040516001600160a01b03909116815260200160405180910390a1565b610e58611050565b6000805460ff191660011790557f62e78cea01bee320cd4e420270b5ea74000d11b0c9f74754ebdbfc544b05a258610e333390565b6001600160a01b03811660009081526001830160205260408120541515610db8565b600061047a825490565b6000610db88383611096565b6000818152600183016020526040812054610f0c5750815460018181018455600084815260208082209093018490558454848252828601909352604090209190915561047a565b50600061047a565b60008181526001830160205260408120548015610ffd576000610f38600183611228565b8554909150600090610f4c90600190611228565b9050818114610fb1576000866000018281548110610f6c57610f6c61123b565b9060005260206000200154905080876000018481548110610f8f57610f8f61123b565b6000918252602080832090910192909255918252600188019052604090208390555b8554869080610fc257610fc2611251565b60019003818190600052602060002001600090559055856001016000868152602001908152602001600020600090556001935050505061047a565b600091505061047a565b60005460ff166107c15760405162461bcd60e51b815260206004820152601460248201527314185d5cd8589b194e881b9bdd081c185d5cd95960621b6044820152606401610397565b60005460ff16156107c15760405162461bcd60e51b815260206004820152601060248201526f14185d5cd8589b194e881c185d5cd95960821b6044820152606401610397565b60008260000182815481106110ad576110ad61123b565b9060005260206000200154905092915050565b600080604083850312156110d357600080fd5b50508035926020909101359150565b80356001600160a01b0381168114610d9e57600080fd5b60008060006060848603121561110e57600080fd5b611117846110e2565b9250611125602085016110e2565b9150611133604085016110e2565b90509250925092565b60006020828403121561114e57600080fd5b610db8826110e2565b60006020828403121561116957600080fd5b5035919050565b60006020828403121561118257600080fd5b81518015158114610db857600080fd5b600060208083528351808285015260005b818110156111bf578581018301518582016040015282016111a3565b506000604082860101526040601f19601f8301168501019250505092915050565b6000602082840312156111f257600080fd5b5051919050565b634e487b7160e01b600052601160045260246000fd5b600060018201611221576112216111f9565b5060010190565b8181038181111561047a5761047a6111f9565b634e487b7160e01b600052603260045260246000fd5b634e487b7160e01b600052603160045260246000fdfea26469706673582212209ade996890c56d4b43fb9e4ec0941b92fb2f65af6439db82451fa7e4509c266064736f6c63430008110033608060405234801561001057600080fd5b50610afa806100206000396000f3fe608060405234801561001057600080fd5b50600436106100b45760003560e01c806354fd4d501161007157806354fd4d501461012f5780638129fc1c14610137578063c12c21c01461013f578063c45a01551461016a578063c75b5a7114610183578063d1660f991461019657600080fd5b806316128211146100b957806317d11a15146100ce57806319a16039146100ea5780631afbb7a4146100fd5780631cff79cd146101065780633dc54b4014610126575b600080fd5b6100cc6100c7366004610852565b6101a9565b005b6100d760035481565b6040519081526020015b60405180910390f35b6100cc6100f8366004610890565b6101df565b6100d760025481565b6101196101143660046108d9565b610229565b6040516100e191906109eb565b6100d760045481565b6100d7600181565b6100cc610271565b600154610152906001600160a01b031681565b6040516001600160a01b0390911681526020016100e1565b600054610152906201000090046001600160a01b031681565b6100cc6101913660046109fe565b610398565b6100cc6101a4366004610a31565b6103f6565b6001546001600160a01b031633146101d457604051631f51116760e01b815260040160405180910390fd5b600291909155600355565b6000546201000090046001600160a01b0316331461021057604051631624d70960e31b815260040160405180910390fd5b6102256001600160a01b03831682600061043a565b5050565b6001546060906001600160a01b0316331461025757604051631f51116760e01b815260040160405180910390fd5b61026a6001600160a01b03841683610582565b9392505050565b600054610100900460ff16158080156102915750600054600160ff909116105b806102ab5750303b1580156102ab575060005460ff166001145b6103135760405162461bcd60e51b815260206004820152602e60248201527f496e697469616c697a61626c653a20636f6e747261637420697320616c72656160448201526d191e481a5b9a5d1a585b1a5e995960921b60648201526084015b60405180910390fd5b6000805460ff191660011790558015610336576000805461ff0019166101001790555b6000805462010000600160b01b0319163362010000021790558015610395576000805461ff0019169055604051600181527f7f26b83ff96e1f2b6a682f133852f6798a09c465da95921460cefb38474024989060200160405180910390a15b50565b6000546201000090046001600160a01b031633146103c957604051631624d70960e31b815260040160405180910390fd5b600180546001600160a01b0319166001600160a01b03949094169390931790925560025560035543600455565b6001546001600160a01b0316331461042157604051631f51116760e01b815260040160405180910390fd5b6104356001600160a01b03841683836105c6565b505050565b8015806104b45750604051636eb1769f60e11b81523060048201526001600160a01b03838116602483015284169063dd62ed3e90604401602060405180830381865afa15801561048e573d6000803e3d6000fd5b505050506040513d601f19601f820116820180604052508101906104b29190610a6d565b155b61051f5760405162461bcd60e51b815260206004820152603660248201527f5361666545524332303a20617070726f76652066726f6d206e6f6e2d7a65726f60448201527520746f206e6f6e2d7a65726f20616c6c6f77616e636560501b606482015260840161030a565b6040516001600160a01b03831660248201526044810182905261043590849063095ea7b360e01b906064015b60408051601f198184030181529190526020810180516001600160e01b03166001600160e01b0319909316929092179091526105f6565b606061026a838360006040518060400160405280601e81526020017f416464726573733a206c6f772d6c6576656c2063616c6c206661696c656400008152506106c8565b6040516001600160a01b03831660248201526044810182905261043590849063a9059cbb60e01b9060640161054b565b600061064b826040518060400160405280602081526020017f5361666545524332303a206c6f772d6c6576656c2063616c6c206661696c6564815250856001600160a01b03166107a59092919063ffffffff16565b80519091501561043557808060200190518101906106699190610a86565b6104355760405162461bcd60e51b815260206004820152602a60248201527f5361666545524332303a204552433230206f7065726174696f6e20646964206e6044820152691bdd081cdd58d8d9595960b21b606482015260840161030a565b6060824710156107295760405162461bcd60e51b815260206004820152602660248201527f416464726573733a20696e73756666696369656e742062616c616e636520666f6044820152651c8818d85b1b60d21b606482015260840161030a565b600080866001600160a01b031685876040516107459190610aa8565b60006040518083038185875af1925050503d8060008114610782576040519150601f19603f3d011682016040523d82523d6000602084013e610787565b606091505b5091509150610798878383876107b4565b925050505b949350505050565b606061079d84846000856106c8565b6060831561082357825160000361081c576001600160a01b0385163b61081c5760405162461bcd60e51b815260206004820152601d60248201527f416464726573733a2063616c6c20746f206e6f6e2d636f6e7472616374000000604482015260640161030a565b508161079d565b61079d83838151156108385781518083602001fd5b8060405162461bcd60e51b815260040161030a91906109eb565b6000806040838503121561086557600080fd5b50508035926020909101359150565b80356001600160a01b038116811461088b57600080fd5b919050565b600080604083850312156108a357600080fd5b6108ac83610874565b91506108ba60208401610874565b90509250929050565b634e487b7160e01b600052604160045260246000fd5b600080604083850312156108ec57600080fd5b6108f583610874565b9150602083013567ffffffffffffffff8082111561091257600080fd5b818501915085601f83011261092657600080fd5b813581811115610938576109386108c3565b604051601f8201601f19908116603f01168101908382118183101715610960576109606108c3565b8160405282815288602084870101111561097957600080fd5b8260208601602083013760006020848301015280955050505050509250929050565b60005b838110156109b657818101518382015260200161099e565b50506000910152565b600081518084526109d781602086016020860161099b565b601f01601f19169290920160200192915050565b60208152600061026a60208301846109bf565b600080600060608486031215610a1357600080fd5b610a1c84610874565b95602085013595506040909401359392505050565b600080600060608486031215610a4657600080fd5b610a4f84610874565b9250610a5d60208501610874565b9150604084013590509250925092565b600060208284031215610a7f57600080fd5b5051919050565b600060208284031215610a9857600080fd5b8151801515811461026a57600080fd5b60008251610aba81846020870161099b565b919091019291505056fea2646970667358221220d3e032b4d454fde89d47c1f3e3d28883f9dd7a1d4a9f2897ad07a0ce3eb716d364736f6c6343000811003360c06040523480156200001157600080fd5b50604051620016c5380380620016c5833981016040819052620000349162000172565b600160005580806001600160a01b0381166200006357604051635919af9760e11b815260040160405180910390fd5b816001600160a01b031663c513c9bb6040518163ffffffff1660e01b8152600401602060405180830381865afa158015620000a2573d6000803e3d6000fd5b505050506040513d601f19601f82011682018060405250810190620000c8919062000172565b6001600160a01b0390811660805283169150620000fa905057604051635919af9760e11b815260040160405180910390fd5b806001600160a01b0316634c252f916040518163ffffffff1660e01b8152600401602060405180830381865afa15801562000139573d6000803e3d6000fd5b505050506040513d601f19601f820116820180604052508101906200015f919062000172565b6001600160a01b031660a05250620001a4565b6000602082840312156200018557600080fd5b81516001600160a01b03811681146200019d57600080fd5b9392505050565b60805160a05161147e620002476000396000818160a5015281816101420152818161027001528181610343015281816103b2015281816104c601528181610649015281816106fc01528181610828015281816108fb01528181610a0901528181610ac701528181610b7a01528181610c9b01528181610d6e01528181610ed501528181610f6f0152610ff8015260008181610e3a0152611092015261147e6000f3fe6080604052600436106100955760003560e01c806372b0d90c1161005957806372b0d90c146101bf578063cd604a31146101df578063dfcd412e146101f2578063f9609f0814610212578063fea53be11461022557600080fd5b80630d4d1513146100ea5780632f4f21e2146101105780633fc8cef31461013057806354fd4d501461017c57806370a082311461019257600080fd5b366100e557336001600160a01b037f000000000000000000000000000000000000000000000000000000000000000016146100e3576040516377ead08760e11b815260040160405180910390fd5b005b600080fd5b6100fd6100f836600461124f565b610245565b6040519081526020015b60405180910390f35b34801561011c57600080fd5b506100e361012b366004611291565b610558565b34801561013c57600080fd5b506101647f000000000000000000000000000000000000000000000000000000000000000081565b6040516001600160a01b039091168152602001610107565b34801561018857600080fd5b506100fd61012c81565b34801561019e57600080fd5b506100fd6101ad3660046112bd565b60016020526000908152604090205481565b3480156101cb57600080fd5b506100e36101da3660046112bd565b6105b1565b6100fd6101ed3660046112e1565b61061e565b3480156101fe57600080fd5b506100fd61020d366004611328565b6107fd565b6100fd61022036600461137b565b610a9c565b34801561023157600080fd5b506100fd610240366004611328565b610c70565b60008361025181610e18565b61026e57604051634d0a593160e01b815260040160405180910390fd5b7f00000000000000000000000000000000000000000000000000000000000000006001600160a01b0316816001600160a01b0316632495a5996040518163ffffffff1660e01b8152600401602060405180830381865afa1580156102d6573d6000803e3d6000fd5b505050506040513d601f19601f820116820180604052508101906102fa91906113b4565b6001600160a01b03161461032157604051630c8319d960e11b815260040160405180910390fd5b6040516370a0823160e01b815230600482015233906000906001600160a01b037f000000000000000000000000000000000000000000000000000000000000000016906370a0823190602401602060405180830381865afa15801561038a573d6000803e3d6000fd5b505050506040513d601f19601f820116820180604052508101906103ae91906113d1565b90507f00000000000000000000000000000000000000000000000000000000000000006001600160a01b031663d0e30db0346040518263ffffffff1660e01b81526004016000604051808303818588803b15801561040b57600080fd5b505af115801561041f573d6000803e3d6000fd5b505050505061042e8734610eae565b6040516394bf804d60e01b8152600481018790526001600160a01b0386811660248301528816906394bf804d906044016020604051808303816000875af115801561047d573d6000803e3d6000fd5b505050506040513d601f19601f820116820180604052508101906104a191906113d1565b6040516370a0823160e01b815230600482015290945060009082906001600160a01b037f000000000000000000000000000000000000000000000000000000000000000016906370a0823190602401602060405180830381865afa15801561050d573d6000803e3d6000fd5b505050506040513d601f19601f8201168201806040525081019061053191906113d1565b61053b9190611400565b9050801561054d5761054d8382610fe2565b505050509392505050565b3361056281611070565b61057f57604051635e35244560e11b815260040160405180910390fd5b6001600160a01b038316600090815260016020526040812080548492906105a7908490611413565b9091555050505050565b6105b96110c3565b6001600160a01b03811660009081526001602081905260409091205490811115610610576001600160a01b038216600090815260016020819052604090912081905561061090839061060b9084611400565b610fe2565b5061061b6001600055565b50565b60008361062a81610e18565b61064757604051634d0a593160e01b815260040160405180910390fd5b7f00000000000000000000000000000000000000000000000000000000000000006001600160a01b0316816001600160a01b0316632495a5996040518163ffffffff1660e01b8152600401602060405180830381865afa1580156106af573d6000803e3d6000fd5b505050506040513d601f19601f820116820180604052508101906106d391906113b4565b6001600160a01b0316146106fa57604051630c8319d960e11b815260040160405180910390fd5b7f00000000000000000000000000000000000000000000000000000000000000006001600160a01b031663d0e30db0346040518263ffffffff1660e01b81526004016000604051808303818588803b15801561075557600080fd5b505af1158015610769573d6000803e3d6000fd5b50505050506107788534610eae565b60405163d598971360e01b81523460048201526001600160a01b03858116602483015261ffff8516604483015286169063d5989713906064016020604051808303816000875af11580156107d0573d6000803e3d6000fd5b505050506040513d601f19601f820116820180604052508101906107f491906113d1565b95945050505050565b60008461080981610e18565b61082657604051634d0a593160e01b815260040160405180910390fd5b7f00000000000000000000000000000000000000000000000000000000000000006001600160a01b0316816001600160a01b0316632495a5996040518163ffffffff1660e01b8152600401602060405180830381865afa15801561088e573d6000803e3d6000fd5b505050506040513d601f19601f820116820180604052508101906108b291906113b4565b6001600160a01b0316146108d957604051630c8319d960e11b815260040160405180910390fd5b6040516370a0823160e01b815230600482015284906000906001600160a01b037f000000000000000000000000000000000000000000000000000000000000000016906370a0823190602401602060405180830381865afa158015610942573d6000803e3d6000fd5b505050506040513d601f19601f8201168201806040525081019061096691906113d1565b604051632d182be560e21b8152600481018990523060248201526001600160a01b0387811660448301529192509089169063b460af94906064015b6020604051808303816000875af11580156109c0573d6000803e3d6000fd5b505050506040513d601f19601f820116820180604052508101906109e491906113d1565b6040516370a0823160e01b815230600482015290945060009082906001600160a01b037f000000000000000000000000000000000000000000000000000000000000000016906370a0823190602401602060405180830381865afa158015610a50573d6000803e3d6000fd5b505050506040513d601f19601f82011682018060405250810190610a7491906113d1565b610a7e9190611400565b90508015610a9057610a908382610fe2565b50505050949350505050565b600082610aa881610e18565b610ac557604051634d0a593160e01b815260040160405180910390fd5b7f00000000000000000000000000000000000000000000000000000000000000006001600160a01b0316816001600160a01b0316632495a5996040518163ffffffff1660e01b8152600401602060405180830381865afa158015610b2d573d6000803e3d6000fd5b505050506040513d601f19601f82011682018060405250810190610b5191906113b4565b6001600160a01b031614610b7857604051630c8319d960e11b815260040160405180910390fd5b7f00000000000000000000000000000000000000000000000000000000000000006001600160a01b031663d0e30db0346040518263ffffffff1660e01b81526004016000604051808303818588803b158015610bd357600080fd5b505af1158015610be7573d6000803e3d6000fd5b5050505050610bf68434610eae565b604051636e553f6560e01b81523460048201526001600160a01b038481166024830152851690636e553f65906044016020604051808303816000875af1158015610c44573d6000803e3d6000fd5b505050506040513d601f19601f82011682018060405250810190610c6891906113d1565b949350505050565b600084610c7c81610e18565b610c9957604051634d0a593160e01b815260040160405180910390fd5b7f00000000000000000000000000000000000000000000000000000000000000006001600160a01b0316816001600160a01b0316632495a5996040518163ffffffff1660e01b8152600401602060405180830381865afa158015610d01573d6000803e3d6000fd5b505050506040513d601f19601f82011682018060405250810190610d2591906113b4565b6001600160a01b031614610d4c57604051630c8319d960e11b815260040160405180910390fd5b6040516370a0823160e01b815230600482015284906000906001600160a01b037f000000000000000000000000000000000000000000000000000000000000000016906370a0823190602401602060405180830381865afa158015610db5573d6000803e3d6000fd5b505050506040513d601f19601f82011682018060405250810190610dd991906113d1565b604051635d043b2960e11b8152600481018990523060248201526001600160a01b0387811660448301529192509089169063ba087652906064016109a1565b604051635b16ebb760e01b81526001600160a01b0382811660048301526000917f000000000000000000000000000000000000000000000000000000000000000090911690635b16ebb7906024015b602060405180830381865afa158015610e84573d6000803e3d6000fd5b505050506040513d601f19601f82011682018060405250810190610ea89190611426565b92915050565b604051636eb1769f60e11b81523060048201526001600160a01b03838116602483015282917f00000000000000000000000000000000000000000000000000000000000000009091169063dd62ed3e90604401602060405180830381865afa158015610f1e573d6000803e3d6000fd5b505050506040513d601f19601f82011682018060405250810190610f4291906113d1565b1015610fde5760405163095ea7b360e01b81526001600160a01b03838116600483015260001960248301527f0000000000000000000000000000000000000000000000000000000000000000169063095ea7b3906044016020604051808303816000875af1158015610fb8573d6000803e3d6000fd5b505050506040513d601f19601f82011682018060405250810190610fdc9190611426565b505b5050565b604051632e1a7d4d60e01b8152600481018290527f00000000000000000000000000000000000000000000000000000000000000006001600160a01b031690632e1a7d4d90602401600060405180830381600087803b15801561104457600080fd5b505af1158015611058573d6000803e3d6000fd5b50610fde925050506001600160a01b03831682611121565b604051636fbc6f6b60e01b81526001600160a01b0382811660048301526000917f000000000000000000000000000000000000000000000000000000000000000090911690636fbc6f6b90602401610e67565b60026000540361111a5760405162461bcd60e51b815260206004820152601f60248201527f5265656e7472616e637947756172643a207265656e7472616e742063616c6c0060448201526064015b60405180910390fd5b6002600055565b804710156111715760405162461bcd60e51b815260206004820152601d60248201527f416464726573733a20696e73756666696369656e742062616c616e63650000006044820152606401611111565b6000826001600160a01b03168260405160006040518083038185875af1925050503d80600081146111be576040519150601f19603f3d011682016040523d82523d6000602084013e6111c3565b606091505b5050905080610fdc5760405162461bcd60e51b815260206004820152603a60248201527f416464726573733a20756e61626c6520746f2073656e642076616c75652c207260448201527f6563697069656e74206d617920686176652072657665727465640000000000006064820152608401611111565b6001600160a01b038116811461061b57600080fd5b60008060006060848603121561126457600080fd5b833561126f8161123a565b92506020840135915060408401356112868161123a565b809150509250925092565b600080604083850312156112a457600080fd5b82356112af8161123a565b946020939093013593505050565b6000602082840312156112cf57600080fd5b81356112da8161123a565b9392505050565b6000806000606084860312156112f657600080fd5b83356113018161123a565b925060208401356113118161123a565b9150604084013561ffff8116811461128657600080fd5b6000806000806080858703121561133e57600080fd5b84356113498161123a565b93506020850135925060408501356113608161123a565b915060608501356113708161123a565b939692955090935050565b6000806040838503121561138e57600080fd5b82356113998161123a565b915060208301356113a98161123a565b809150509250929050565b6000602082840312156113c657600080fd5b81516112da8161123a565b6000602082840312156113e357600080fd5b5051919050565b634e487b7160e01b600052601160045260246000fd5b81810381811115610ea857610ea86113ea565b80820180821115610ea857610ea86113ea565b60006020828403121561143857600080fd5b815180151581146112da57600080fdfea2646970667358221220cb4af6bfdb718634b9264c949899ac22d1c5f59bf3c6f8047430621a5ee8d16664736f6c6343000811003360806040523480156200001157600080fd5b506040516200220a3803806200220a833981016040819052620000349162000122565b6001600160a01b0381166200008f5760405162461bcd60e51b815260206004820152601b60248201527f5a65726f2061646472657373206973206e6f7420616c6c6f7765640000000000604482015260640160405180910390fd5b6001600160a01b03811660008181526001602052604080822080546001600160601b0319166b204fce5e3e2502611000000090811790915590517fddf252ad1be2c89b69c2b068fc378daa952ba7f163c4a11628f55a4df523b3ef91620000f99190815260200190565b60405180910390a350600680546001600160a81b031916336101000260ff191617905562000154565b6000602082840312156200013557600080fd5b81516001600160a01b03811681146200014d57600080fd5b9392505050565b6120a680620001646000396000f3fe608060405234801561001057600080fd5b50600436106101a95760003560e01c806370a08231116100f9578063b4b5ea5711610097578063dd62ed3e11610071578063dd62ed3e14610479578063e7a324dc146104b9578063f1127ed8146104e0578063f2fde38b1461054757600080fd5b8063b4b5ea5714610440578063c3cda52014610453578063d505accf1461046657600080fd5b806395d89b41116100d357806395d89b41146103ea5780639742ca461461040d578063a9059cbb14610420578063b0660c3d1461043357600080fd5b806370a082311461036d578063782d6fe11461039f5780637ecebe00146103ca57600080fd5b806330adf81f11610166578063481c6a7511610140578063481c6a75146102de578063587cde1e146102f65780635c19a95c1461031f5780636fcfff451461033257600080fd5b806330adf81f14610272578063313ce56714610299578063349dc329146102b357600080fd5b806306fdde03146101ae578063095ea7b3146101ea57806318160ddd1461020d57806320606b701461022e5780632185810b1461025557806323b872dd1461025f575b600080fd5b6101d46040518060400160405280600781526020016608ecac2e4c4def60cb1b81525081565b6040516101e19190611b92565b60405180910390f35b6101fd6101f8366004611bfc565b61055a565b60405190151581526020016101e1565b6102206b204fce5e3e2502611000000081565b6040519081526020016101e1565b6102207f8cad95687ba82c2ce50e74f7b754645e5117c3a5bec8151c0726d5857980a86681565b61025d610618565b005b6101fd61026d366004611c26565b610688565b6102207f6e71edae12b1b97f4d1f60370fef10105fa2faae0126114a169c64845d6126c981565b6102a1601281565b60405160ff90911681526020016101e1565b6007546102c6906001600160a01b031681565b6040516001600160a01b0390911681526020016101e1565b6006546102c69061010090046001600160a01b031681565b6102c6610304366004611c62565b6002602052600090815260409020546001600160a01b031681565b61025d61032d366004611c62565b6107c9565b610358610340366004611c62565b60046020526000908152604090205463ffffffff1681565b60405163ffffffff90911681526020016101e1565b61022061037b366004611c62565b6001600160a01b03166000908152600160205260409020546001600160601b031690565b6103b26103ad366004611bfc565b6107d6565b6040516001600160601b0390911681526020016101e1565b6102206103d8366004611c62565b60056020526000908152604090205481565b6101d46040518060400160405280600481526020016323a2a0a960e11b81525081565b61025d61041b366004611c62565b610a60565b6101fd61042e366004611bfc565b610b2f565b6006546101fd9060ff1681565b6103b261044e366004611c62565b610b6b565b61025d610461366004611c8e565b610be9565b61025d610474366004611ce6565b610ed4565b610220610487366004611d50565b6001600160a01b039182166000908152602081815260408083209390941682529190915220546001600160601b031690565b6102207fe48329057bfd03d55e49b547132e39cffd9c1820ad7b9d4c5307691425d15adf81565b6105236104ee366004611d83565b600360209081526000928352604080842090915290825290205463ffffffff811690600160201b90046001600160601b031682565b6040805163ffffffff90931683526001600160601b039091166020830152016101e1565b61025d610555366004611c62565b6112c1565b600080600019830361057457506001600160601b03610599565b61059683604051806060016040528060258152602001611edc602591396113ad565b90505b336000818152602081815260408083206001600160a01b0389168085529083529281902080546001600160601b0319166001600160601b03871690811790915590519081529192917f8c5be1e5ebec7d5bd14f71427d1e84f3dd0314c0f7b2291e5b200ac8c7c3b925910160405180910390a360019150505b92915050565b60065461010090046001600160a01b031633146106505760405162461bcd60e51b815260040161064790611dc3565b60405180910390fd5b6006805460ff191660011790556040517f795b0e16c8da9807b0a215f3749bd6dbcc49fc0472183f4e446abb7dcbd9d00790600090a1565b6001600160a01b0383166000908152602081815260408083203380855290835281842054825160608101909352602580845291936001600160601b039091169285926106de9288929190611edc908301396113ad565b9050866001600160a01b0316836001600160a01b03161415801561070b57506001600160601b0382811614155b156107b157600061073583836040518060600160405280603d8152602001611ffe603d91396113dc565b6001600160a01b03898116600081815260208181526040808320948a168084529482529182902080546001600160601b0319166001600160601b0387169081179091559151918252939450919290917f8c5be1e5ebec7d5bd14f71427d1e84f3dd0314c0f7b2291e5b200ac8c7c3b925910160405180910390a3505b6107bc878783611426565b5060019695505050505050565b6107d333826116f8565b50565b60004382106108375760405162461bcd60e51b815260206004820152602760248201527f476561723a3a6765745072696f72566f7465733a206e6f742079657420646574604482015266195c9b5a5b995960ca1b6064820152608401610647565b6001600160a01b03831660009081526004602052604081205463ffffffff1690819003610868576000915050610612565b6001600160a01b0384166000908152600360205260408120849161088d600185611e10565b63ffffffff90811682526020820192909252604001600020541611610900576001600160a01b0384166000908152600360205260408120906108d0600184611e10565b63ffffffff168152602081019190915260400160002054600160201b90046001600160601b031691506106129050565b6001600160a01b038416600090815260036020908152604080832083805290915290205463ffffffff1683101561093b576000915050610612565b600080610949600184611e10565b90505b8163ffffffff168163ffffffff161115610a1b576000600261096e8484611e10565b6109789190611e34565b6109829083611e10565b6001600160a01b038816600090815260036020908152604080832063ffffffff858116855290835292819020815180830190925254928316808252600160201b9093046001600160601b0316918101919091529192508790036109ef576020015194506106129350505050565b805163ffffffff16871115610a0657819350610a14565b610a11600183611e10565b92505b505061094c565b506001600160a01b038516600090815260036020908152604080832063ffffffff909416835292905220546001600160601b03600160201b9091041691505092915050565b60065461010090046001600160a01b03163314610a8f5760405162461bcd60e51b815260040161064790611dc3565b6001600160a01b038116610ae55760405162461bcd60e51b815260206004820152601b60248201527f5a65726f2061646472657373206973206e6f7420616c6c6f77656400000000006044820152606401610647565b600780546001600160a01b0319166001600160a01b0383169081179091556040517f2f834d1c8c4b956018fff5faca4d99868ae635487424d9c265c257ccbc698c6a90600090a250565b600080610b5483604051806060016040528060268152602001611f31602691396113ad565b9050610b61338583611426565b5060019392505050565b6001600160a01b03811660009081526004602052604081205463ffffffff1680610b96576000610be2565b6001600160a01b038316600090815260036020526040812090610bba600184611e10565b63ffffffff168152602081019190915260400160002054600160201b90046001600160601b03165b9392505050565b604080518082018252600781526608ecac2e4c4def60cb1b60209182015281517f8cad95687ba82c2ce50e74f7b754645e5117c3a5bec8151c0726d5857980a866818301527f028ef9f797075f74ac647c65fde04fb0f128c2d59fd40f45732269917642fd4681840152466060820152306080808301919091528351808303909101815260a0820184528051908301207fe48329057bfd03d55e49b547132e39cffd9c1820ad7b9d4c5307691425d15adf60c08301526001600160a01b038a1660e083015261010082018990526101208083018990528451808403909101815261014083019094528351939092019290922061190160f01b6101608401526101628301829052610182830181905290916000906101a20160408051601f198184030181528282528051602091820120600080855291840180845281905260ff8a169284019290925260608301889052608083018790529092509060019060a0016020604051602081039080840390855afa158015610d6b573d6000803e3d6000fd5b5050604051601f1901519150506001600160a01b038116610ddd5760405162461bcd60e51b815260206004820152602660248201527f476561723a3a64656c656761746542795369673a20696e76616c6964207369676044820152656e617475726560d01b6064820152608401610647565b6001600160a01b0381166000908152600560205260408120805491610e0183611e65565b919050558914610e5e5760405162461bcd60e51b815260206004820152602260248201527f476561723a3a64656c656761746542795369673a20696e76616c6964206e6f6e604482015261636560f01b6064820152608401610647565b87421115610ebd5760405162461bcd60e51b815260206004820152602660248201527f476561723a3a64656c656761746542795369673a207369676e617475726520656044820152651e1c1a5c995960d21b6064820152608401610647565b610ec7818b6116f8565b505050505b505050505050565b60006000198603610eed57506001600160601b03610f12565b610f0f86604051806060016040528060248152602001611fa6602491396113ad565b90505b604080518082018252600781526608ecac2e4c4def60cb1b60209182015281517f8cad95687ba82c2ce50e74f7b754645e5117c3a5bec8151c0726d5857980a866818301527f028ef9f797075f74ac647c65fde04fb0f128c2d59fd40f45732269917642fd4681840152466060820152306080808301919091528351808303909101815260a090910183528051908201206001600160a01b038b166000908152600590925291812080547f6e71edae12b1b97f4d1f60370fef10105fa2faae0126114a169c64845d6126c9918c918c918c919086610fef83611e65565b909155506040805160208101969096526001600160a01b0394851690860152929091166060840152608083015260a082015260c0810188905260e0016040516020818303038152906040528051906020012090506000828260405160200161106e92919061190160f01b81526002810192909252602282015260420190565b60408051601f198184030181528282528051602091820120600080855291840180845281905260ff8b169284019290925260608301899052608083018890529092509060019060a0016020604051602081039080840390855afa1580156110d9573d6000803e3d6000fd5b5050604051601f1901519150506001600160a01b03811661113c5760405162461bcd60e51b815260206004820152601f60248201527f476561723a3a7065726d69743a20696e76616c6964207369676e6174757265006044820152606401610647565b8b6001600160a01b0316816001600160a01b03161461119d5760405162461bcd60e51b815260206004820152601a60248201527f476561723a3a7065726d69743a20756e617574686f72697a65640000000000006044820152606401610647565b884211156111ed5760405162461bcd60e51b815260206004820152601f60248201527f476561723a3a7065726d69743a207369676e61747572652065787069726564006044820152606401610647565b846000808e6001600160a01b03166001600160a01b0316815260200190815260200160002060008d6001600160a01b03166001600160a01b0316815260200190815260200160002060006101000a8154816001600160601b0302191690836001600160601b031602179055508a6001600160a01b03168c6001600160a01b03167f8c5be1e5ebec7d5bd14f71427d1e84f3dd0314c0f7b2291e5b200ac8c7c3b925876040516112ab91906001600160601b0391909116815260200190565b60405180910390a3505050505050505050505050565b60065461010090046001600160a01b031633146112f05760405162461bcd60e51b815260040161064790611dc3565b6001600160a01b0381166113465760405162461bcd60e51b815260206004820152601b60248201527f5a65726f2061646472657373206973206e6f7420616c6c6f77656400000000006044820152606401610647565b6006546040516001600160a01b0380841692610100900416907f8be0079c531659141344cd1fd0a4f28419497f9722a3daafe3b4186f6b6457e090600090a3600680546001600160a01b0390921661010002610100600160a81b0319909216919091179055565b600081600160601b84106113d45760405162461bcd60e51b81526004016106479190611b92565b509192915050565b6000836001600160601b0316836001600160601b0316111582906114135760405162461bcd60e51b81526004016106479190611b92565b5061141e8385611e7e565b949350505050565b60065460ff1680611446575060065461010090046001600160a01b031633145b8061145b57506007546001600160a01b031633145b6114a75760405162461bcd60e51b815260206004820152601d60248201527f476561723a3a7472616e73666572732061726520666f7262696464656e0000006044820152606401610647565b6001600160a01b0383166115235760405162461bcd60e51b815260206004820152603c60248201527f476561723a3a5f7472616e73666572546f6b656e733a2063616e6e6f7420747260448201527f616e736665722066726f6d20746865207a65726f2061646472657373000000006064820152608401610647565b6001600160a01b03821661159f5760405162461bcd60e51b815260206004820152603a60248201527f476561723a3a5f7472616e73666572546f6b656e733a2063616e6e6f7420747260448201527f616e7366657220746f20746865207a65726f20616464726573730000000000006064820152608401610647565b6001600160a01b0383166000908152600160209081526040918290205482516060810190935260368084526115ea936001600160601b03909216928592919061203b908301396113dc565b6001600160a01b03848116600090815260016020908152604080832080546001600160601b0319166001600160601b039687161790559286168252908290205482516060810190935260308084526116529491909116928592909190611f0190830139611782565b6001600160a01b0383811660008181526001602090815260409182902080546001600160601b0319166001600160601b03968716179055905193851684529092918616917fddf252ad1be2c89b69c2b068fc378daa952ba7f163c4a11628f55a4df523b3ef910160405180910390a36001600160a01b038084166000908152600260205260408082205485841683529120546116f3929182169116836117cf565b505050565b6001600160a01b03808316600081815260026020818152604080842080546001845282862054949093528787166001600160a01b031984168117909155905191909516946001600160601b039092169391928592917f3134e8a2e6d97e929a7e54011ea5485d7d196dd5f0ba4d4ef95803e8e3fc257f9190a461177c8284836117cf565b50505050565b60008061178f8486611e9e565b9050846001600160601b0316816001600160601b0316101583906117c65760405162461bcd60e51b81526004016106479190611b92565b50949350505050565b816001600160a01b0316836001600160a01b0316141580156117fa57506000816001600160601b0316115b156116f3576001600160a01b038316156118bf576001600160a01b03831660009081526004602052604081205463ffffffff16908161183a576000611886565b6001600160a01b03851660009081526003602052604081209061185e600185611e10565b63ffffffff168152602081019190915260400160002054600160201b90046001600160601b03165b905060006118ad8285604051806060016040528060288152602001611f57602891396113dc565b90506118bb86848484611977565b5050505b6001600160a01b038216156116f3576001600160a01b03821660009081526004602052604081205463ffffffff1690816118fa576000611946565b6001600160a01b03841660009081526003602052604081209061191e600185611e10565b63ffffffff168152602081019190915260400160002054600160201b90046001600160601b03165b9050600061196d8285604051806060016040528060278152602001611f7f60279139611782565b9050610ecc858484845b600061199b43604051806060016040528060348152602001611fca60349139611b6f565b905060008463ffffffff161180156119f557506001600160a01b038516600090815260036020526040812063ffffffff8316916119d9600188611e10565b63ffffffff908116825260208201929092526040016000205416145b15611a69576001600160a01b03851660009081526003602052604081208391611a1f600188611e10565b63ffffffff168152602081019190915260400160002080546001600160601b0392909216600160201b026fffffffffffffffffffffffff0000000019909216919091179055611b1a565b60408051808201825263ffffffff80841682526001600160601b0380861660208085019182526001600160a01b038b166000908152600382528681208b8616825290915294909420925183549451909116600160201b026fffffffffffffffffffffffffffffffff19909416911617919091179055611ae9846001611ebe565b6001600160a01b0386166000908152600460205260409020805463ffffffff191663ffffffff929092169190911790555b604080516001600160601b038086168252841660208201526001600160a01b038716917fdec2bacdd2f05b59de34da9b523dff8be42e5e38e818c82fdb0bae774387a724910160405180910390a25050505050565b600081600160201b84106113d45760405162461bcd60e51b815260040161064791905b600060208083528351808285015260005b81811015611bbf57858101830151858201604001528201611ba3565b506000604082860101526040601f19601f8301168501019250505092915050565b80356001600160a01b0381168114611bf757600080fd5b919050565b60008060408385031215611c0f57600080fd5b611c1883611be0565b946020939093013593505050565b600080600060608486031215611c3b57600080fd5b611c4484611be0565b9250611c5260208501611be0565b9150604084013590509250925092565b600060208284031215611c7457600080fd5b610be282611be0565b803560ff81168114611bf757600080fd5b60008060008060008060c08789031215611ca757600080fd5b611cb087611be0565b95506020870135945060408701359350611ccc60608801611c7d565b92506080870135915060a087013590509295509295509295565b600080600080600080600060e0888a031215611d0157600080fd5b611d0a88611be0565b9650611d1860208901611be0565b95506040880135945060608801359350611d3460808901611c7d565b925060a0880135915060c0880135905092959891949750929550565b60008060408385031215611d6357600080fd5b611d6c83611be0565b9150611d7a60208401611be0565b90509250929050565b60008060408385031215611d9657600080fd5b611d9f83611be0565b9150602083013563ffffffff81168114611db857600080fd5b809150509250929050565b6020808252601f908201527f476561723a3a63616c6c6572206973206e6f7420746865206d616e6167657200604082015260600190565b634e487b7160e01b600052601160045260246000fd5b63ffffffff828116828216039080821115611e2d57611e2d611dfa565b5092915050565b600063ffffffff80841680611e5957634e487b7160e01b600052601260045260246000fd5b92169190910492915050565b600060018201611e7757611e77611dfa565b5060010190565b6001600160601b03828116828216039080821115611e2d57611e2d611dfa565b6001600160601b03818116838216019080821115611e2d57611e2d611dfa565b63ffffffff818116838216019080821115611e2d57611e2d611dfa56fe476561723a3a617070726f76653a20616d6f756e7420657863656564732039362062697473476561723a3a5f7472616e73666572546f6b656e733a207472616e7366657220616d6f756e74206f766572666c6f7773476561723a3a7472616e736665723a20616d6f756e7420657863656564732039362062697473476561723a3a5f6d6f7665566f7465733a20766f746520616d6f756e7420756e646572666c6f7773476561723a3a5f6d6f7665566f7465733a20766f746520616d6f756e74206f766572666c6f7773476561723a3a7065726d69743a20616d6f756e7420657863656564732039362062697473476561723a3a5f7772697465436865636b706f696e743a20626c6f636b206e756d62657220657863656564732033322062697473476561723a3a7472616e7366657246726f6d3a207472616e7366657220616d6f756e742065786365656473207370656e64657220616c6c6f77616e6365476561723a3a5f7472616e73666572546f6b656e733a207472616e7366657220616d6f756e7420657863656564732062616c616e6365a26469706673582212205c356fbd26a2927ad0969afd2d786175a49452b6df0cc597ce2d0edbb24a252964736f6c63430008110033",
  "sourcePath": "/home/mikko/Coding/core-v3/contracts/test/suites/GenesisFactory.sol",
  "compiler": {
    "name": "solc",
    "version": "0.8.17+commit.8df45f5f"
  },
  "functionHashes": {
    "acl()": "de287359",
    "addPriceFeeds((address,address)[])": "8874ff1f",
    "addressProvider()": "2954018c",
    "claimACLOwnership()": "abd45ac6",
    "claimAddressProviderOwnership()": "f9d68c81",
    "owner()": "8da5cb5b",
    "priceOracle()": "2630c12f",
    "renounceOwnership()": "715018a6",
    "transferOwnership(address)": "f2fde38b"
  },
  "gasEstimates": {
    "creation": {
      "codeDepositCost": "332400",
      "executionCost": "infinite",
      "totalCost": "infinite"
    },
    "external": {
      "acl()": "2369",
      "addPriceFeeds((address,address)[])": "infinite",
      "addressProvider()": "2348",
      "claimACLOwnership()": "infinite",
      "claimAddressProviderOwnership()": "infinite",
      "owner()": "2319",
      "priceOracle()": "2326",
      "renounceOwnership()": "infinite",
      "transferOwnership(address)": "28399"
    }
  }
}